:020000040800F2
:10000000384800209D0100088B490008233500086E
:10001000894900081D0C0008C14F000800000000BD
:1000200000000000000000000000000005010008C2
:100030006F0C000800000000490100089549000805
:10004000B7010008B7010008B7010008B7010008B0
:10005000B7010008B7010008B7010008B7010008A0
:10006000B7010008B7010008B7010008210C00081B
:100070002D0C0008B7010008390C0008B701000872
:10008000B7010008B7010008090A0008B701000815
:10009000B7010008B7010008B7010008B701000860
:1000A000B70100083D4A0008B7010008B701000881
:1000B000B7010008B7010008B70100083135000892
:1000C00025350008B7010008B7010008B70100088E
:1000D000B7010008A94F0008B7010008B54F000894
:1000E000B7010008B7010008B7010008DFF810D019
:1000F00000F04CFC0048004711590008AFF30080A5
:1001000038480020224B19680868B0E8F00F80F3E7
:100110000988BFF36F8F4FF0000080F311884EF015
:100120000D0E70470000000006480068006880F36C
:10013000088862B661B6BFF34F8FBFF36F8F00DFE1
:1001400000BF00BF08ED00E0EFF30980BFF36F8F41
:100150000F4B1A6820E9F00F106008B54FF05000FF
:1001600080F31188BFF34F8FBFF36F8F06F0B0FBA2
:100170004FF0000080F31188BDE808401968086856
:10018000B0E8F00F80F30988BFF36F8F704700BFAE
:100190004C010020EFF305807047000006488047BF
:1001A00006480047FEE7FEE7FEE7FEE7FEE7FEE75C
:1001B000FEE7FEE7FEE7FEE7394A0008ED0000082B
:1001C000202A04DB203A21FA02F00021704721FAAC
:1001D00002F3D040C2F12002914008431946704713
:1001E00040EA01039B0703D009E008C9121F08C0B9
:1001F000042AFAD203E011F8013B00F8013B521E39
:10020000F9D27047D2B201E000F8012B491EFBD2AF
:1002100070470022F6E710B513460A460446194611
:10022000FFF7F0FF204610BDF0B480EA0102D40FC2
:100230004200B2EB410F02D20246084611464A0084
:1002400042D0C30DDDB2C1F3C752AD1A202D35DA4D
:10025000C1F3160141F4000204B15242C5F1200677
:1002600002FA06F12A411044B3EBD05F23D0C4B1A7
:10027000012DA0EBC35009DCF0BC4FF0004202EAB4
:10028000C352DBB200F5000000F0C5BA400000F137
:10029000807000EBC350A0F1807040EAD17049003B
:1002A00009E0490841EAC071A0EBC35000F5000025
:1002B000400800EBC350F0BC00F0A4BA6142012238
:1002C00002EB4101001BF6E7F0BC704781F00041F2
:1002D000AAE780F00040A7E780EA010210B502F02B
:1002E0000043400022D04A001FD0010E01EB1261F2
:1002F000C0F35600C2F3560240F4000042F400027C
:10030000A0FB022000047F39140400D0401C50EAF6
:10031000124001D44000491EC2B20C0604EBD010BA
:10032000401C4008802A02D003E0002010BD20F0CD
:100330000100002900DA0020184310BD2DE9FE4F0E
:10034000804681EA0300C00F0C46009021F0004176
:1003500023F00045B8EB0200A94105D240462146F2
:1003600090461C460B46024623F00040104347D0FF
:10037000270DC7F30A00C3F30A510290401A0190F7
:1003800040286BDAC3F3130040F4801B00989246B8
:1003900020B10023D2EB030A63EB0B0B0198594603
:1003A000C0F14002504600F00CFA06460D46504699
:1003B0005946019A00F014FA10EB0800614100243C
:1003C00087EA115284EAE7731A4340D0009A62B375
:1003D000019A012A4FEA075215DC001B61EB02016A
:1003E0004FF0004202EA0752CDE90042001C41F5FD
:1003F000801132462B4600F04BFA03B0BDE8F08F77
:1004000040462146F9E7001B61EB0201001C41F563
:10041000801300185B412018A2F5001747EB030179
:1004200040EAD570B6196D4111E06D084FEA360605
:1004300045EAC0754FEA0752001B61EB0201001C40
:1004400041F5801149084FEA300000195141324608
:100450002B4603B0BDE8F04F00F00BBA0098012224
:1004600040000023D0EB020263EBE07300982146CA
:100470004FEAE074B8EB000061EB0401E9E783F0B8
:1004800000435BE781F0004158E72DE9FE4F81EA28
:10049000030404F0004421F0004100944FF0000BED
:1004A00023F0004350EA01045ED052EA03045BD01B
:1004B000C3F30A54C1F30A552C44A4F2F334019453
:1004C000A0FB0254C1F3130141F48011C3F31303E1
:1004D00043F4801301FB024400FB034E840A970A95
:1004E00044EA815447EA8357A4FB076802958D0AC2
:1004F00005FB07854FEA932C04FB0C542705029D4E
:100500004FEA065847EA1637B5EB08056EEB070CBD
:10051000870E920E47EA811742EA8312A7FB020177
:10052000B6EB0B0164EB00042B0D43EA0C335E18B1
:1005300044EB1C50DA465146E7FB0201C5F31304B5
:100540004FEA0B3343EA14534FEA0432019C43EA67
:100550000603A4F10C040294009CCDE900B400F061
:1005600097F903B0BDE8F08F00200146F9E72DE9C7
:10057000F04D81EA030404F0004B21F000451446DD
:100580004FF0000A23F0004150EA050220D054EA5F
:1005900001021DD0C5F30A570246C5F31303C1F388
:1005A0001300C1F30A5640F4801543F48013A7EBFF
:1005B0000608101BD64608F2FD3873EB050002D37F
:1005C00008F1010801E092185B41B8F1000F03DA6D
:1005D00000200146BDE8F08D00204FF48011064652
:1005E00084460EE0171B73EB050705D3121B63EB64
:1005F000050306434CEA010C49084FEA3000921803
:100600005B4150EA0107EDD152EA030012D082EAC1
:10061000040083EA0501084305D0101BAB4106D254
:100620000122002306E000224FF0004302E06FF0B9
:10063000010253101AEB06004CEB085110EB0A00B4
:1006400041EB0B01BDE8F04D00F013B970B521F09E
:10065000004303430CD0C1F30A550024D5EB040535
:1006600064EB0403D617AD1AB34102DB0020014648
:1006700070BD201841EB025170BD96230022114637
:1006800000F0C9B80EB540F2334102910021CDE926
:1006900000110A460B4600F0FBF803B000BD00F065
:1006A000004220F00040C10DC0F3160040F40000ED
:1006B0007F2901DA00207047962903DCC1F19601F9
:1006C000C84001E096398840002AF4D04042704783
:1006D00070B5C1F30A5201F000450024C1F31301C3
:1006E00040F2FF3341F480119A4201DA002070BDDC
:1006F00040F233439A42A2F2334203DC5242FFF704
:100700005FFD00E090402C43F1D0404270BD00F00E
:10071000004230F000400AD0C10D01F56071C0F315
:10072000160042EA0151C2084007114370470020F9
:100730000146704730B50B460146002020220124B7
:1007400009E021FA02F59D4205D303FA02F5491B9F
:1007500004FA02F52844151EA2F10102F1DC30BDB5
:100760002DE9F05F0546002092469B4688460646E6
:10077000814640241BE02846414647462246FFF773
:100780001FFD53465A46C01A914110D311461846D0
:10079000224600F016F82D1A67EB01084F46224654
:1007A0000120002100F00DF817EB00094E41201E3A
:1007B000A4F10104DFDC484631462A464346BDE841
:1007C000F09F202A04DB203A00FA02F10020704753
:1007D0009140C2F1200320FA03F31943904070477F
:1007E000202A06DBCB17203A41FA02F043EAE073F5
:1007F00006E041FA02F3D040C2F1200291400843E2
:10080000194670470029A8BF7047401C490008BF1F
:1008100020F00100704710B4B0FA80FC00FA0CF030
:1008200050EA010404BF10BC704749B1CCF1200468
:1008300021FA04F411FA0CF118BF012121430843F5
:10084000A3EB0C01CB1D4FEA00614FEA102042BF21
:10085000002010BC704700EBC35010440029A4BF17
:1008600010BC7047401C490008BF20F0010010BCBC
:10087000704710B5141E73F1000408DA401C41F1F2
:10088000000192185B411A4301D120F0010010BD14
:100890002DE9F04D92469B4611B1B1FA81F202E08A
:1008A000B0FA80F220329046FFF78BFF04460F46E5
:1008B00040EA0A0041EA0B0153465A46084313D066
:1008C000114653EA010019D0C8F140025046FFF723
:1008D00077FC05460E46504659464246FFF771FFE3
:1008E000084305D0012004E020463946BDE8F08DDC
:1008F0000020054346EAE0762C4337430A98630517
:10090000E40AA0EB08000022FD0A44EA47540A303A
:1009100002D500200146E9E7010510196941DDE92A
:10092000084500196941BDE8F04DA2E7C1F30A523C
:10093000C1F3130140F2FF3341F480119A4202DA0D
:1009400000200146704740F233439A42A2F23342FC
:1009500002DC5242FFF734BCFFF733BF30B5041E50
:1009600071F1000404DB4FF00044404264EB0101EC
:10097000141E73F1000405DB1C464FF00043524285
:1009800063EB0403994208BF904230BD064C074D0B
:1009900006E0E06840F0010394E80700984710344F
:1009A000AC42F6D3FFF7A6FBDC760008FC76000825
:1009B00070B58C1810F8015B15F0070301D110F821
:1009C000013B2A1106D110F8012B03E010F8016B4E
:1009D00001F8016B5B1EF9D12B0705D40023521ED1
:1009E0000DD401F8013BFAE710F8013BCB1A921C39
:1009F00003E013F8015B01F8015B521EF9D5A14237
:100A0000D8D3002070BD0000014800F075BC000084
:100A1000A80A002070B5044600688168C943C90768
:100A200017D1816821F00101816001F0D9F80546F4
:100A30000AE000BF01F0D4F8401B022804D9206866
:100A40008068C043C00706D020688068C043C007E4
:100A5000F0D0002070BDA06A40F01000A062E06AF3
:100A600040F00100E062012070BD10B50146406A0F
:100A7000826A12F0500F05D0006A026BBDE8104088
:100A800008461047816A41F40071816201688968F3
:100A9000C1F3424107290CD1017B51B9816A21F48C
:100AA00080718162816AC90403D4816A41F00101C5
:100AB000816200F007FC10BD10B5406A816A41F008
:100AC00040018162C16A41F00401C16200F013FC7F
:100AD00010BD10B5406A00F00DFC10BDF8B5002641
:100AE0000446009600688168C943C9072DD0816813
:100AF00041F001018160164816490068B0FBF1F031
:100B000000E0401E00900028FBD101F069F8054686
:100B100016E000BF01F064F8401B022810D92068DD
:100B20008068C043C0070BD0A06A40F01000A062EC
:100B3000E06A40F00100E06284F824600120F8BD22
:100B400020688068C043C007E4D10020F8BD0000E1
:100B50004801002040420F002C4990B0DFF8A890D7
:100B6000642201F1C80000F025FD06F0A5FB284F26
:100B7000264E4FF0FF380F900021386805F0DAFE5E
:100B800010F0050F38D023484146006806F038FAC7
:100B9000012834D10024002505EB850006EB8000F8
:100BA00030F81400FFF769FD4946FFF795FB014651
:100BB000204605F0ABFB6D1CEDB2092DECD306EB26
:100BC0004400B0F8B400FFF758FD4946FFF784FB36
:100BD0000146204605F09AFB694601EB8401641C3E
:100BE000E4B248610A2CD6D30B480023424669463A
:100BF000006806F00DF802E0142005F0EFFC142167
:100C00000FA805F011FDB7E76740533AE00900204F
:100C1000500000205800002048000020FEE700009F
:100C2000014800F0C1BD0000D80A0020014800F0D2
:100C3000BBBD0000D40E0020014800F0B5BD00008F
:100C4000900E002030B590F840500124AC40C56BA8
:100C50006C60046863604368102B036803D099607C
:100C60000068C26030BD9A600068C16030BD7047E6
:100C700072B6FEE72DE9F041044690460D4618464F
:100C8000FFF745FD06460F46134A144B20462946FA
:100C9000FFF7FBFB05460C464046FFF738FD2A46AA
:100CA0002346FFF7F2FB2A462346FFF7EEFB0246F8
:100CB0000B4600200A49FFF75AFC4FF02242094B2D
:100CC000FFF7E3FB32463B46FFF7D9FBBDE8F041B7
:100CD0000022054BFFF7D3BB182D4454FB211940CC
:100CE0000000F03F941A6D420000104070B50646B7
:100CF0000846FFF7C7FC05460A480C46805DFFF72B
:100D0000C1FC094A02EBC603D3E90023FFF7BDFB90
:100D10002A462346FFF7B9FBBDE870406FF01B027F
:100D2000FFF794BC10000020C801002070B50C46ED
:100D3000054600F00FF828462168FFF7D7FFBDE809
:100D40007040024B024AFFF795BF000000000442CA
:100D5000B5FE96372DE9F0418846642430B101286C
:100D600008D002280AD003280FD10BE00027012663
:100D700008250AE002270326042506E004270526A5
:100D8000022502E006270726012518212A2000F067
:100D9000ABF806E018212A2000F0A6F8641E24B261
:100DA0008CB12842F6D074B139462A2000F09CF864
:100DB000040431462A2000F097F82043C8F80000C8
:100DC0000120BDE8F08164210020C8F80010F8E798
:100DD00010B57F212A2000F087F80146A0F5405089
:100DE000553804D035A004F0EDF8002010BD39A02E
:100DF00004F0E8F800F090F841F288342146002031
:100E000000F03EF92146012000F03AF92146022087
:100E100000F036F92146032000F032F94FF4FA646D
:100E20002146002000F044F92146012000F040F95D
:100E30002146022000F03CF92146032000F038F959
:100E400001220221002000F06DF80122022110464B
:100E500000F068F802210122084600F063F8012240
:100E60000221032000F05EF8002000F0DCF80020F2
:100E700000F0A1F8012000F08DF8002000F0C2F889
:100E800005220221012000F0ECF80B21002000F0E7
:100E9000A3F80B21012000F09FF80B21022000F0A5
:100EA0009BF80B21032000F097F8002000F016F9C2
:100EB000642000F089FD012010BD00000D0A4644A9
:100EC000433232313420496E6974204661696C6561
:100ED000642121000D0A4644433232313420494412
:100EE0003A25640A0000000013B582B0642401238F
:100EF00003AA54210748009401F0E6F9022301AA4D
:100F000054210448009401F0B7F8BDF8040004B07F
:100F100040BA10BD1C0B00201C214FF400422A20B7
:100F200000F03CB970B504464FF6FF7000EA013599
:100F3000C2F309000543144801551046FFF7A2FB10
:100F400002460B4600201149FFF711FB104A02EB45
:100F5000C402C2E9000164B1012C0DD0022C0ED0F4
:100F6000032C0FD12A461721BDE870402A2000F03B
:100F700015B92A461421F7E72A461521F4E72A462F
:100F80001621F1E770BD000010000020D01283414F
:100F9000C801002010B504461A212A20FFF7A4FF3B
:100FA00020F400720CB142F400721A21BDE8104026
:100FB0002A2000F0F3B810B504461A212A20FFF7C2
:100FC00093FF20F400620CB142F400621A21BDE8E4
:100FD00010402A2000F0E2B84FF6FF7202EAC12268
:100FE00048B1012809D0022809D0032809D12121BC
:100FF0002A2000F0D3B81E21FAE71F21F8E72021AC
:10100000F6E7704710B504461A212A20FFF76CFF57
:1010100020F040020CB142F040021A21BDE810401D
:101020002A2000F0BBB810B504461A212A20FFF789
:101030005BFF20F080020CB142F080021A212A20CE
:1010400000F0ACF819212A20FFF74EFF20F0010232
:101050000CB142F001021921BDE810402A2000F035
:101060009DB838B1C00340EA4130104380B240F42B
:10107000027201E042F402721B212A2000F08EB8B5
:10108000FF2914D950B101280BD002280CD0032815
:101090000DD10A460B212A2000F080B80A4608210B
:1010A000F9E70A460921F6E70A460A21F3E77047FD
:1010B00050B101280BD002280CD003280DD10A46CC
:1010C00013212A2000F06AB80A461021F9E70A46DF
:1010D0001121F6E70A461221F3E7704710B50446DE
:1010E0001A212A20FFF700FF20F400520CB142F42D
:1010F00000521A21BDE810402A2000F04FB800002D
:101100008EB006F0D9F8214E214D4FF0FF340C90EF
:101110000021306805F00EFC10F0060F32D0214699
:10112000286805F06DFF012827D11A490020FFF734
:10113000FDFDCDE9040117490120091DFFF7F6FD6A
:10114000CDE90601134902200831FFF7EFFDCDE993
:101150000801104903200C31FFF7E8FD0023CDE919
:101160000A011A461946286805F052FD0A4800236C
:1011700022466946006805F04BFD14210CA805F0D5
:1011800053FAC5E7142005F029FAC1E75000002002
:1011900054000020000000204C0000201CB5032358
:1011A0008DF80410110A8DF80510642100918DF856
:1011B0000620410001AA024801F086F81CBD00008B
:1011C0001C0B002070470000F8B50024009490F834
:1011D00024202546012A12D0012280F824204A68C2
:1011E0001F23072A0DD20668776B521E02EB82027C
:1011F00093409F430B6893401F43776319E002209D
:10120000F8BD06680D2A0AD2376BD21F02EB8202A4
:1012100093409F430B6893401F43376309E0F76A8D
:101220000D3A02EB820293409F430B6893401F43A9
:10123000F7620A68072306680A2A0AD3F7680A3A97
:1012400002EB420293409F438B6893401F43F76039
:1012500008E0376902EB420293409F438B6893405A
:101260001F4337610A68102A01D0112A20D1124B7E
:1012700002689A4217D193681B0219D4936843F409
:10128000000393600968102912D10C490C4A0968BF
:10129000B1FBF2F101EB8101490000E0491E009130
:1012A0000029FBD104E0816A41F020018162012420
:1012B00080F824502046F8BD002401404801002059
:1012C00040420F0008B500200090084869460068B9
:1012D00005F0ACFD0098002807D005494FF080507C
:1012E0000860BFF34F8FBFF36F8F08BD5800002019
:1012F00004ED00E07047704770B50446006806686A
:101300004568A90625D5B10723D5A16AC90603D426
:10131000A16A41F40071A1628168C1F342410729C9
:1013200010D1217B71B9416821F020014160A06A90
:1013300020F48070A062A06AC00403D4A06A40F0C8
:101340000100A0622046FFF7BDFF21686FF0120088
:10135000086028062ED570072CD5A06AC00603D4D5
:10136000A06A40F40050A06220688168C1F3023195
:10137000072909D04168490515D48168C1F3424164
:10138000072910D1217B71B9416821F080014160AA
:10139000A06A20F48050A062A06AC00503D4A06AAD
:1013A00040F00100A0622046FFF70CFF21686FF0BB
:1013B0000C00086068060CD5F0070AD0A06A40F45B
:1013C0008030A062204600F093F821686FF00100A1
:1013D000086070BD2DE9F0414FF0000704003D4664
:1013E0007ED0A06A002628B9E66284F824602046F0
:1013F00000F080F82046FFF70DFBA16AC90600D473
:1014000020B1A06A40F01000A06269E0A16A21F456
:10141000885141F00201A1626268E169237B0A43BD
:1014200047EA43010A43A1684FF48077B94209D0E3
:10143000012907D05FF0000194F814C0BCF1010F3E
:1014400002D00AE03946F7E7F3B1A36A43F020037C
:10145000A362E36A43F00103E3622368D3F804C0A4
:101460002CF4694C4CEA010CC3F804C021688B6869
:10147000DFF870C003EA0C0313438B60A168B94224
:101480000BD0012909D00CE0DFF85CC0A3690CEB9C
:1014900043330B4343F40061DFE7218A0D05A5F5D3
:1014A00080152168CB6A23F470032B43CB6221683B
:1014B00089680E4B1940914208D1E662A16A21F079
:1014C000020141F00101A162BDE8F081A06A20F0B3
:1014D000020040F01000A062E06A40F00100E0620B
:1014E0000120F1E7FDF7E1FF00E0FFFFFE0E1FFF27
:1014F0007047000070B586B000260546009601963C
:101500000296039600682549884245D12449886996
:1015100040F400708861886900F400700490886964
:1015200040F004008861886900F004000490886934
:1015300040F0080088618869032400F008000490E6
:10154000FF20CDE900046946164800F04FFA0094E8
:1015500069461548019400F049FA154C1348C4E94E
:1015600000068020C4E902604000206180006061C4
:101570002020A0610002E061204600F0BFF908B120
:10158000FFF776FB2C62002205211220656201F034
:1015900005F8122000F0F4FF06B070BD00240140F1
:1015A0000010024000080140000C01400800024009
:1015B000D80A00202DE9F047894604463B490068D7
:1015C0003B4F0E1D9046884201D0B84207D130688B
:1015D00010F4702F03D001252846BDE8F08794F859
:1015E000240001280CD0012084F824002046FFF7B5
:1015F00075FA05004FF0000004D084F82400EBE7F2
:101600000220EAE7A16A40F60162914341F4807149
:10161000A1622168B94218D1326812F4702F14D037
:10162000A16A41F48011A1623168490505D5A16A1A
:1016300021F4005141F48051A162A16AC9040AD584
:10164000E16A21F00601E16206E0A26A22F480125A
:10165000A2624968E9E7E06284F82400216A15483B
:101660008862216A1448C862216A144808632168A4
:101670006FF0020008602068816841F48071816029
:10168000216843464A464C31206A00F065F92068DB
:101690008168C1F342410729816803D041F4801178
:1016A000816099E741F4A001FAE7000000240140BD
:1016B000002801406B0A0008D30A0008B90A000894
:1016C00010B590F821100022022905D00421816371
:1016D00080F82020012010BD01680B6823F00E0364
:1016E0000B6001680B6823F001030B6090F8403039
:1016F000C46B012101FA03F3636080F8211080F8C4
:101700002020104610BD000010B590F821100024D4
:10171000022903D00421816301243DE001680A68A5
:1017200022F00E020A6001680A6822F001020A60D3
:101730001A4A0168914201D1012121E0174A14326D
:10174000914201D110211BE0144A2832914201D16B
:10175000891515E0114A3C32914201D189140FE0FC
:101760000E4A5032914202D14FF4803108E00B4AC8
:101770006432914202D14FF4801101E04FF0807148
:10178000064A083A5160012180F82110002180F8B2
:101790002010416B01B18847204610BD080002406F
:1017A00090F82100704700002DE9F05FC16B0C68D4
:1017B00001680B68D0F840C0042202FA0CF2494DCF
:1017C000DFF824A1494E4A4FDFF828B1DFF828E1BD
:1017D00022422CD05A072AD50A68920603D40A68F6
:1017E00022F004020A600168A94201D1042219E032
:1017F000514501D1402215E0B14202D14FF480623F
:1018000010E0B94202D14FF480420BE0594502D1B9
:101810004FF4802206E0714502D14FF4800201E0CE
:101820004FF080622F4908394A60C16A3BE04FF0AF
:10183000020808FA0CF818EA040F4FF000094FF0FC
:10184000010235D05FEA837832D50B689B0605D458
:101850000B6823F00A030B6080F821200168A9427D
:1018600001D1022219E0514501D1202215E0B142F7
:1018700002D14FF4007210E0B94202D14FF400528D
:101880000BE0594502D14FF4003206E0714502D118
:101890004FF4001201E04FF00072124908394A601B
:1018A00080F82090816A00291AD0BDE8F05F0847CF
:1018B000082505FA0CF5254212D01B0710D50B6838
:1018C00023F00E030B6090F84010C36B02FA01F195
:1018D0005960826380F8212080F82090016BE2E754
:1018E000BDE8F09F080002401C00024030000240AA
:1018F00044000240580002406C00024030B528B35A
:1019000008C8134914221944B1FBF2F18900C163DC
:1019100010498163022141771A6843F6F0718A43C6
:10192000D0E900142143D0E902452C432143046946
:1019300021434469214384692143114319600021F3
:101940004163012242770177084630BD012030BD56
:10195000F8FFFDBF0000024070B5044690F820007B
:10196000002501280CD0012084F8200094F8216083
:101970000020012E06D084F820000225284670BDE4
:10198000022070BD022684F82160A06320680668EA
:1019900026F0010606602046FFF754F9E06A0028A9
:1019A0002068016802D041F00E0106E021F0040138
:1019B00001602068016841F00A0101602068016847
:1019C00041F001010160D9E770B5044600F008F963
:1019D0000546601C02D004480078044400F000F979
:1019E000401BA042FAD370BD3C0100202DE9F84F06
:1019F000DFF8B8910024A9F1040B23460F2709F161
:101A0000040AABF1040EC9E00125A5402A40AA4210
:101A10007DD1674ED1F804C0ACEB0608B44532D096
:101A200014DCBCF1030F3AD009DCBCF1000F2AD062
:101A3000BCF1010F1CD0BCF1020F31D11DE0BCF193
:101A4000110F17D0BCF1120F2AD119E0B8F5881F79
:101A500019D006DCB8F5803F15D0B8F5801F1FD12E
:101A600011E0B8F5001F0ED0B8F5041F18D10AE038
:101A7000CB6815E0CB681B1D12E0CB6808330FE084
:101A8000CB680C330CE08B682BB1012B4FF00803B3
:101A900003D0456104E0042302E0056100E0002377
:101AA000FF2A01D8064601E000F104064FEA84054A
:101AB00001D9A5F12005D6F8008007FA05FC28EA2F
:101AC0000C0803FA05F548EA0508C6F800804D68D9
:101AD000ED0062D5374DAE6946F00106AE61AD69E5
:101AE00024F0030605F001050095334D06EB050CC7
:101AF000DCF80850A607360F07FA06F825EA0805AD
:101B0000DFF8B880404503D14FF0000817E044E00B
:101B1000DFF8AC80404502D14FF001080FE0DFF85C
:101B2000A480404502D14FF0020808E0DFF8988019
:101B3000404502D14FF0030801E04FF0040808FAD5
:101B400006F848EA0508CCF808804D68D9F8006026
:101B5000ED024D4601D5164300E096432E604D68D8
:101B6000DAF80060AD02554601D5164300E0964311
:101B70002E604D68DBF80060AD035D4601D516436D
:101B800000E096432E604D68DEF80060ED03754678
:101B900001D5164300E096432E60641C0D682A466A
:101BA000E5407FF431AFBDE8F88F00000804014044
:101BB0000000111000100240000001400008014028
:101BC000000C0140001001400014014080680840F2
:101BD00000D0012070470AB1016170470904FBE79A
:101BE00001488068704700003C0100207047704742
:101BF0002DE9F041016804464A694E6890F83E00BC
:101C00000025D743FA050BD4F243D20508D46FF46C
:101C1000807201254A6121680A6842F400420A6024
:101C2000B90508D4F143C90505D422686FF40071E1
:101C300045F002055161790525D4F143C90522D447
:101C4000638D94F83D10226B202808D13BB92129DF
:101C500010D029290ED0282901D1212A0AD02268A2
:101C60006FF48061516145F00405102806D04028CA
:101C700004D008E0204602F033F904E0206801684F
:101C800041F400710160380508D4F043C00505D463
:101C900021686FF4006045F008054861002D07D009
:101CA000206C284320642046BDE8F04101F0ACBC24
:101CB000BDE8F0812DE9F047026800215368C66A4B
:101CC00090F83E4090F83D50102C12D0402C10D08F
:101CD000046C002C7DD05469E443A6077AD4DE431B
:101CE000B60577D4036C03B19169BDE8F04702F003
:101CF000D3B8976951694FF42A0CC9435FEAC17898
:101D00004FF02A4904D066452AD04E4528D010E02D
:101D1000DE43B6050DD4C16A614501D1012103E05E
:101D2000C16A494501D10821C162BDE8F04702F00E
:101D300019B80E0716D4DE43B60513D4416CC9B2E8
:101D40001161416B09B1896A29B9816B002907D0FA
:101D5000896A002904D00068416841F4006141604B
:101D6000BDE8F0878E0706D4DE43B60503D4BDE890
:101D7000F04701F04BBFFE43526876074FEA02522C
:101D80001DD4002AECDB0A0608D4DA43520505D438
:101D9000490705D5BDE8F04701F0DCBE4907DFD4AF
:101DA000D9438905DCD4212D05D0402CD8D1BDE8FC
:101DB000F04702F01DB8BDE8F04701F089BE002AE7
:101DC000CEDB4A060BD4DA43520508D4490708D5BE
:101DD00001E00DE00EE0BDE8F04701F041BD49072C
:101DE000BED4D9438905BBD4BDE8F04701F0CFBCD0
:101DF000916970E7E10606D4D943890503D4BDE8AB
:101E0000F04702F0B5B82821212D27D0292D25D063
:101E1000650655D4DD436D0552D4640752D590F85C
:101E20003D30448D002C9BD01269446A2270426A76
:101E3000521C4262428D521E4285428D002A8FD131
:101E40002A2B8DD10268536823F4806353602222C9
:101E5000026380F83D1000F00DFB81E7250623D4D6
:101E6000DD436D0520D4640720D590F83D30448DC6
:101E7000002CF2D0446A24781461426A521C4262F7
:101E8000428D521E4285428D002AE6D1292BE4D193
:101E90000268536823F4806353602122026380F850
:101EA0003D1000F0E8FA5BE76107D6D4D943890515
:101EB000D3D4418D0029D0D0416A097811610AE05C
:101EC0006107CAD4D9438905C7D4418D0029C4D03C
:101ED0001169426A1170416A491C4162418D491E73
:101EE00041853DE77047000070B5040025D094F8A7
:101EF0003D00002520B984F83C50204600F07CFAD3
:101F0000242084F83D002068016821F0010101606F
:101F10002068016841F4004101602068016821F4F3
:101F20000041016000F098FC4D4A6168914201D87F
:101F30004C4900E04C49884201D2012070BD4B4918
:101F40002368B0FBF1F15E6826F03F060E435E6049
:101F50006368934206D94FF4967359434FF47A73EA
:101F6000B1FBF3F12368491C1E6A26F03F0631439A
:101F700019626168914210D84900401EB0FBF1F22D
:101F8000521CC2F30B02042A01D2042022E0B0FB4F
:101F9000F1F0401CC0F30B001CE0A268F2B301EBAF
:101FA000C10303EB0116431EB3FBF6F35B1C43F4C2
:101FB00080431B0549D092B301EBC10202EB011132
:101FC000401EB0FBF1F0401CC0F30B0040F4804019
:101FD00040F400402168CA694CF6FF739A431043ED
:101FE000C861D4E9071001432068026822F0C002EA
:101FF00011430160D4E9030101432068826848F27B
:10200000FF339A4311438160D4E9050108432168F5
:10201000CA6822F0FF021043C86001E00EE016E03B
:102020002068016841F0010101602564202084F8E6
:102030003D00256384F83E50002070BD01EB410651
:10204000431EB3FBF6F35B1CB3E70120C2E701EBD1
:102050004101401EB0FBF1F0401CC0F30B00B7E79C
:10206000A086010080841E0000093D0040420F0050
:1020700070477047704700002DE9F84F0025DDF8E4
:102080002890984617468A4604460095FFF7A8FD13
:10209000064694F83D0020287AD11923012286496A
:1020A0002046009602F03EF80028F5D194F83C0056
:1020B00001286DD0012084F83C0020680168C90720
:1020C00003D1016841F0010101602068016821F439
:1020D00000610160222084F83D00102084F83E0059
:1020E00025646762A4F82A80608D20857348E062C9
:1020F00033464A465146204601F026FC00287CD152
:10210000208DDFF8BC81202768B1012814D0022877
:10211000206801681ED041F4806101602068416937
:1021200080690090BBE02068416981690091016885
:1021300041F400710160B2E02068016821F480611F
:10214000016072B62068416981690091016841F4BB
:1021500000710AE041F40061016072B620684169D3
:1021600081690091016821F48061016062B696E0A6
:10217000032865D801280CD002284B464FF00002F6
:102180004146204600960BD001F0CCFFA8BB0CE0E6
:1021900090E032464946204602F06AF868BB71E09A
:1021A00001F0C0FF48BB72B633E02068016821F43B
:1021B0008061016072B620680069616A0870606AB7
:1021C000401C6062208D401E2085608D401E608511
:1021D0003C4846F2A8110068B0FBF1F0C0EBC0002B
:1021E00000EB80000090401E009007D020684069FE
:1021F000C04340070DD50098F5E727E044F8305F6D
:102200006773A573206940F02000206162B62573D2
:102210001CE02068016841F40071016020680069D9
:10222000616A0870606A401C6062218D491E2185C8
:10223000618D491E618562B621680969017025E0DA
:1022400032464946204602F013F810B10120BDE89D
:10225000F88F20680069616A0870606A401C6062DB
:10226000208D401E81B22185608D401E60852068D2
:102270004269D243520712D4032903D1016821F4E1
:102280008061016020680069616A0870606A401CB2
:102290006062208D401E2085608D401E6085208DEF
:1022A00000287FF465AF84F83D7084F83E5084F8D0
:1022B0003C50CCE70220CAE7020010000000FFFFFC
:1022C00004000100480100202DE9F84F1F46904608
:1022D0008A460446DDF82890FFF782FC054694F80C
:1022E0003D0020287FD11923012240492046009536
:1022F00001F018FF002876D194F83C00012872D034
:10230000012084F83C0020680168C90703D10168F6
:1023100041F0010101602068016821F40061016061
:10232000212084F83D00102084F83E000026266419
:10233000C4F824806785608D20852D48E0622B4697
:102340004A465146204601F075FB90B92068416924
:102350008069009036E02A464946204601F0C0FFD9
:1023600050B1206C042804D12068016841F4007148
:1023700001600120BDE8F88F606A2168007808617B
:10238000606A401C6062618D491E6185218D491E15
:1023900089B2218522685369DB435B070BD451B1B5
:1023A00000781061606A401C6062608D401E60852C
:1023B000208D401E20852A464946204601F086FE93
:1023C0000028CED1208D0028C5D154F83D0B0168DE
:1023D00041F400710160202004F81E09E677667759
:1023E0000020C7E7FFE70220C4E70000020010005A
:1023F0000000FFFF7047704710B586B000210091C4
:102400000191029103910068174988422AD1174C23
:10241000A06940F00800A061A069694600F00800CA
:102420000490C020009012200190032003901048D7
:10243000FFF7DCFAE06940F40010E061E069002297
:1024400000F40010049005211F2000F0A7F81F20C1
:1024500000F096F800220521202000F09FF82020AF
:1024600000F08EF806B010BD00540040001002408D
:10247000000C01407047704702488168027811449F
:10248000816070473C010020074810B5016841F0A9
:1024900010010160032000F0A1F80F2000F006F801
:1024A00000F04AF8002010BD0020024030B505467B
:1024B0001C4887B0816941F400618161806906A987
:1024C00000F40060009001A800F0A6F900F0D4F933
:1024D0001549164AB0FBF1F11548491E02604160EA
:1024E00040F2E7320021C0E903218160816100F000
:1024F000BFFB040012D10E4800F008FC04000DD10F
:10250000192000F03DF8102D07D20022294619208D
:1025100000F044F80748056000E0012407B02046B9
:1025200030BD00000010024040420F00002C01406E
:10253000180F0020400100200F4808B5816941F0C4
:1025400001018161816901F001010091C16941F0DE
:102550008051C161C069002200F0805000900F21BD
:10256000901E00F01BF80548416821F0E06141F041
:102570000071416008BD00000010024000000140F1
:10258000002809DB00F01F02012191404009800072
:1025900000F1E020C0F8001170470000F0B40E4BCD
:1025A0001B680C46C3F30223C3F10705042D00D9B1
:1025B0000425191D072901D2002300E0DB1E012696
:1025C00006FA05F1491E214099409E40761E1640AC
:1025D0003143F0BC02F020BD0CED00E0064900F0F4
:1025E000070208684FF6FF03184040EA0220034A3A
:1025F00010430860704700000CED00E00000FA0591
:102600002DE9F84305460078354CC00754D0E06901
:102610000026C00008D4E06940F08050E061E06925
:10262000012600F0805000902E480168C90512D4A0
:102630000168804641F480710160FFF7D1FA0746D6
:1026400005E000BFFFF7CCFAC01B642823D8D8F8F8
:102650000000C005F6D5206A10F4407021D0A9888A
:1026600001F4407181421CD0206A1F49012220F4EC
:1026700040700A6000220A602062C00711D0FFF794
:10268000AFFA074641F2883808E000BFFFF7A8FA22
:10269000C11B414502D90320BDE8F883206A8007A9
:1026A000F4D5206A696820F44070084320621EB1A6
:1026B000E06920F08050E0612878800705D56068E7
:1026C000A96820F44040084360602878C00605D51A
:1026D0006068E96820F48000084360600020DBE760
:1026E0000010024000700040400442422DE9F047D3
:1026F0000F46050061D0434E306800F00700B84235
:1027000009D2306820F0070038433060306800F0AC
:102710000700B84251D128683B4C810712D54007C9
:1027200003D5606840F4E06060602878000703D556
:10273000606840F4605060606068A96820F0F00054
:10274000084360602878C00728D06868012810D046
:102750002168022810D0890700292EDA616821F04B
:10276000030101436160FFF73BFA804641F288397B
:102770000DE021688903EFE78901EDE7FFF730FA03
:10278000A0EB0801494502D90320BDE8F087606845
:10279000696800F00C00B0EB810FEFD1306800F0F9
:1027A0000700B8420BD9306820F00700384330608A
:1027B000306800F00700B84201D00120E5E7287832
:1027C000400705D56068E96820F4E0600843606070
:1027D0002878000706D56068296920F4605040EA2F
:1027E000C100606000F058F86168084AC1F3031145
:1027F000515CC8400649086006480068FFF756FE6D
:102800000020C2E70020024000100240B676000817
:1028100048010020400100200F2202600C4A53684A
:1028200003F003034360536803F0F00383605368CD
:1028300003F4E063C36052684FF4E06303EAD2023A
:1028400002610448006800F007000860704700005B
:102850000010024000200240044805490068496811
:10286000044AC1F30221515CC8407047480100206E
:1028700000100240C676000804480549006849680F
:10288000044AC1F3C221515CC8407047480100208E
:1028900000100240C67600080E4A51680E4801F04A
:1028A0000C03042B11D0082B0FD10C48C1F3834328
:1028B000C903C05C0AD55168084AC1F34041921E61
:1028C000515C054A5043B0FBF1F07047044948435E
:1028D000704700000010024000127A00A67600083F
:1028E00000093D002DE9F84F040070D02078C04D5C
:1028F000C00749D06868C0F38100012807D0686824
:10290000C0F38100022809D16868C00306D5286891
:10291000800339D560680028E7D035E06068B0F5FD
:10292000803F0BD010B1B0F5A02F11D0286820F453
:1029300080302860286820F4802002E0286840F475
:1029400080302860606890B1FFF74AF906460AE0D7
:10295000286840F480202860F0E700BFFFF740F9C6
:10296000801B642873D828688003F7D50CE0FFF734
:1029700037F9064605E000BFFFF732F9801B6428EF
:10298000F0D828688003F7D420789A4E80074FF05B
:1029900001094FF0000839D5686810F00C0F07D016
:1029A0006868C0F38100022809D16868C00306D4B2
:1029B0002868800714D52069012808D110E0206913
:1029C000B0B1C6F80090FFF70BF9074605E00AE141
:1029D000FFF706F9C01B0228C4D828688007F7D57E
:1029E0002868616920F0F80040EAC10028600DE025
:1029F000C6F80080FFF7F4F8074604E0FFF7F0F8A8
:102A0000C01B022823D828688007F7D42078000745
:102A10002CD57948A169D9B1C0F80090FFF7E0F84A
:102A2000074604E0FFF7DCF8C01B02280FD8686AED
:102A30008007F7D571484FF4FA510068B0FBF1F008
:102A4000009000BF0098411E0091FAD20EE080E095
:102A5000C0F80080FFF7C4F8074604E0FFF7C0F8AD
:102A6000C01B022875D8686A8007F7D42078400711
:102A700060D5E8690027C00008D4E86940F08050BC
:102A8000E861E869012700F0805000905C48016827
:102A9000C90513D40168834641F480710160FFF7D2
:102AA0009FF8824606E000BFFFF79AF8A0EB0A0005
:102AB00064284ED8DBF80000C005F5D5E068012891
:102AC0000AD008B1052813D0286A20F00100286236
:102AD000286A20F0040002E0286A40F00100286221
:102AE000E06841F2883B98B1FFF77AF882460BE044
:102AF000286A40F004002862EEE700BFFFF770F894
:102B0000A0EB0A0159455AD8286A8007F6D50CE08F
:102B1000FFF766F8824605E0FFF762F8A0EB0A01CE
:102B200059454CD8286A8007F6D41FB1E86920F0CF
:102B30008050E861E06988B36968C1F381010229C6
:102B400044D00228C6F8608004D0FFF749F8044654
:102B500038E034E0FFF744F8074604E0FFF740F8B8
:102B6000C01B02282BD828688001F7D4206AB0F552
:102B7000803F05D16868A16820F400300843686090
:102B8000D4E908010843696821F4741108436860B6
:102B9000C6F86090FFF724F8044606E025E000BF81
:102BA000FFF71EF8001B022809D828688001F7D516
:102BB0001BE000BFFFF714F8001B022802D9032016
:102BC000BDE8F88F28688001F4D40EE00128F7D022
:102BD0006868226A00F48031914204D1616A00F48D
:102BE0007010884201D00120EAE70020E8E70000E9
:102BF000001002400000424280044242480100208E
:102C0000007000407047704770B590F83C20012A72
:102C100026D0012480F83C40022280F83D20036841
:102C20005A689D6822F070060A6832435A600D4B5C
:102C300002689A4208D0B2F1804F05D00A4B9A42FE
:102C400002D00A4B9A4204D1496825F08003194307
:102C5000916080F83D40002180F83C10084670BD2E
:102C6000022070BD002C014000040040000800401C
:102C700010B5040003D094F83D0010B107E0012026
:102C800010BD002084F83C00204600F01FF8022010
:102C900084F83D00211D206801F0D6FE012084F853
:102CA000460084F83E0084F83F0084F8400084F831
:102CB000410084F8420084F8430084F8440084F81A
:102CC000450084F83D00002010BD000008B50C4A06
:102CD00001680C48914207D1C16941F00201C1610C
:102CE000C06900F0020009E0074A914207D1C169BA
:102CF00041F00401C161C06900F00400009008BD0A
:102D000000040040001002400008004090F83D1010
:102D1000012901D001207047022180F83D1001688F
:102D2000CA6842F00102CA6000680B49884208D0B4
:102D3000B0F1804F05D00949884202D00849884245
:102D400004D1816801F00701062903D0016841F030
:102D50000101016000207047002C01400004004088
:102D60000008004070B5044690F83C00002501289A
:102D700017D0012684F83C60022084F83D002068CA
:102D8000826822F0770222F47F428260086850282D
:102D900038D00DDC20284FD005DC90B3102811D19D
:102DA0004AE0022070BD302846D040280AD13BE0DE
:102DB00060282FD070280DD0B0F5805F03D0B0F51B
:102DC000005F12D0012584F83D60002084F83C00AB
:102DD000284670BDCB68D1E90121206801F06AFE68
:102DE0002068816841F0770109E0CB68D1E90121D1
:102DF000206801F05FFE2068816841F480418160B5
:102E0000E1E719E0CA684968206801F065FE5021D1
:102E1000206806E0CA684968206801F06EFE6021FB
:102E2000206801F051FECEE7CA684968206801F0C9
:102E300053FE40212068F4E7226801461046F0E77F
:102E4000704770B50446006801694FF00005C9433A
:102E5000890715D4C168C943890711D4E91E0161E6
:102E600001202077206880698007204602D0FFF784
:102E7000E7FF04E000F098F8204600F096F8257788
:102E800020680169C943490717D4C168C943490784
:102E900013D46FF00401016102202077206880695B
:102EA00010F4407F204602D0FFF7CAFF04E000F094
:102EB0007BF8204600F079F8257720680169C9433E
:102EC000090716D4C168C943090712D46FF0080175
:102ED0000161042020772068C0698007204602D065
:102EE000FFF7AEFF04E000F05FF8204600F05DF869
:102EF000257720680169C943C90617D4C168C94349
:102F0000C90613D46FF010010161082020772068F2
:102F1000C06910F4407F204602D0FFF791FF04E023
:102F200000F042F8204600F040F82577206801695B
:102F3000C943C90708D1C168C943C90704D1891E5B
:102F40000161204600F032F820680169C943090692
:102F500009D4C168C943090605D46FF08001016135
:102F60002046FFF74FFE20680169C943490609D48E
:102F7000C168C943490605D46FF04001016120468C
:102F800000F01EF820680169C94389060BD4C168A6
:102F9000C943890607D46FF0200101612046BDE8CE
:102FA0007040FFF730BE70BD70477047006803493E
:102FB000884201D1FFF760BA70470000002C014041
:102FC0007047704770470000F8B50168044608680C
:102FD000CA684B6910F00F0F4FF0000559D003F08D
:102FE000010602F49077374365D0C10705D0D105BB
:102FF00003D5616C41F001016164410705D5D90732
:1030000003D0616C41F002016164810705D5D907E5
:1030100003D0616C41F004016164010707D502F03F
:103020002001314303D0616C41F008016164616C9F
:1030300000293AD0800604D5900602D5204601F03A
:10304000F6FD20684069616CC0F38010090700D468
:1030500060B3204601F0B6FD20684069400621D5E6
:103060002068143050E8001F21F0400140E80012B1
:10307000002AF5D1E06BA8B16D494163E06BFEF722
:1030800043FB002811D0E06B416B01B0BDE8F0407C
:10309000084783060FD593060DD52046BDE8F840B6
:1030A00001F0C5BD2046FFF78DFFF8BD2046FFF7B4
:1030B00089FF6564F8BD266B2023012E7CD1C606EE
:1030C0007AD5D60678D508684868009048694FF0E8
:1030D0000206400640D5E16B086840680004000C19
:1030E000E8D0A28D8242E5D9E085886920282DD0DC
:1030F00020680C3050E8001F21F4807140E8001275
:10310000002AF5D12068143050E8001F21F0010199
:1031100040E80012002AF5D12068143050E8001F62
:1031200021F0400140E80012002AF5D184F8423035
:10313000256320680C3050E8001F21F0100140E8A2
:103140000012002AF5D1E06BFEF7BAFA6663A08D93
:10315000E18D401A81B22AE0A08DE18D401A81B242
:10316000E08D0028A6D00029A4D022680C3252E8B5
:10317000000F20F4907042E80007002FF5D120687E
:10318000143050E8002F22F0010240E80027002F01
:10319000F5D184F84230256320680C3050E8002FC8
:1031A00022F0100240E80023002BF5D16663204690
:1031B000FFF707FFF8BDFFE705062BD5150629D554
:1031C00094F841002128F5D1A068B0F5805F01D1C5
:1031D0002069B0B1206A411C2162216800784860F2
:1031E000E08C401E0004000CE084E3D12068C1683C
:1031F00021F08001C1602068C16841F04001C160D8
:10320000D8E7206A0088C0F308004860206A801C64
:103210002062E5E74006CDD55006CBD5CA682046EA
:1032200022F04002CA6084F8413000F061F9C1E741
:103230001F4B000870B5040004D094F8410000252D
:1032400010B106E0012070BD84F84050204600F027
:1032500023F8242084F841002068C16821F400513B
:10326000C160204601F044FD2068016921F49041CD
:1032700001612068416921F02A0141612068C1682B
:1032800041F40051C1606564202084F8410084F855
:1032900042006563002070BD2DE9F04786B0002430
:1032A0000094019402940394064603684548DFF8AD
:1032B00010C102210322051510274FF080084FF49A
:1032C0000059634539D1836943F48043836183693D
:1032D00003F480430493836943F0040383618069AA
:1032E000DFF8E4A000F0040004900802CDE900013A
:1032F000039269465046FEF779FBCDE900546946D2
:1033000050460294FEF772FB314D30482860C5E903
:103310000174C5E903846C61C5E906492846FEF7D6
:10332000EDFA08B1FDF7A4FCB563002205212520C4
:103330006E62FFF733F925203DE0DFF898C0634562
:103340003BD1C36943F48023C361C36903F4802381
:103350000493836943F0080383618069CDE90051D8
:1033600000F00800CDE903201B4D69462846FEF712
:103370003DFBE814CDE90004694628460294FEF7B7
:1033800035FB134D1148443528382860C5E90174D0
:10339000C5E903846C61C5E906492846FEF7AEFA23
:1033A00008B1FDF765FCB5630022052127206E6298
:1033B000FFF7F4F82720FFF7E3F806B0BDE8F08741
:1033C0000038014000100240000801404400024063
:1033D000900E002000480040000C014070472DE98D
:1033E000F843044690F841001F4616460D46202833
:1033F00002D00220BDE8F8837DB176B10020606480
:10340000212084F84100FEF7EBFBA6848046E68489
:10341000A068B0F5805F02D003E00120EAE72069F0
:1034200010B12E4600250EE000260CE0802120463B
:1034300001F07EFDA0B9AEB116F8010B216848601D
:10344000E08C401EE084E08C43464FF00002009781
:103450000028EBD14FF04001204601F069FD30B16A
:103460000320C7E735F8020BC0F30800E6E7202089
:1034700084F841000020BDE770B5044690F8410093
:10348000202801D0022070BD49B342B32162A2843A
:10349000E28400206064212384F84130A56B114B45
:1034A000AB62A56B104BEB62A56B104B2B63A36B50
:1034B0005863256813462A1DA06BFEF74DFA216854
:1034C0006FF0400008602068143050E8001F41F0A1
:1034D000800140E80012002AF5D1002070BD0120D3
:1034E00070BD0000794B0008BB4B00082F4B000853
:1034F00008B50020009008486946006803F096FC73
:103500000098002807D005494FF080500860BFF3AD
:103510004F8FBFF36F8F08BD5C00002004ED00E00B
:103520007047FEE70148FEF763BB00001C0B00205C
:103530000148FEF7BFBB00001C0B002038B5406AF5
:10354000002190F83D202B4B46F2A8141B68B3FBDA
:10355000F4F3C3EBC30303EB830300933BB15B1EA4
:10356000009303681B689B0505D5009BF6E7036C79
:1035700043F020030364436B03B19962836B03B18F
:10358000996203681C6824F480641C604185436B65
:1035900003B15963836B03B1596303681C6824F05A
:1035A00001041C6090F83D402023602C0BD028249F
:1035B00034EA02020FD080F83D3080F83E1000BFA0
:1035C000FEF790FC38BD80F83D3080F83E10016475
:1035D000FEF70CFB38BD0268136843F0010313606B
:1035E0000268136843F480631360016380F83D4010
:1035F000E6E700004801002000684169C943090668
:1036000001D400210161704770B5044690F83D0077
:1036100094F83E10102901D0402906D1222804D167
:1036200021680A6822F400620A60282131EA000257
:103630004FF000054FF0200626D0216849680905A3
:1036400005D4602803D084F83D6084F83E5025639B
:1036500020684168090537D5416821F4006141605F
:10366000606B90F821203C49012A11D04163606BC6
:10367000FEF74AF838B32068016821F001010160C3
:1036800084F83D60606B1CE0256384F83D10DFE743
:10369000A06B4163A06BFEF737F8A0B120684169C9
:1036A000C943490605D40069616A0870606A401C14
:1036B00060622068016821F00101016084F83D60CA
:1036C000A06B416B884710E094F83D10602910D042
:1036D0004169C943490605D40069616A0870606A96
:1036E000401C60622046FEF7FDFB206CC1071CD128
:1036F00015E084F83D6025644169C943490605D455
:103700000069616A0870606A401C60622068016834
:1037100021F0010101602046FEF768FAE5E7810724
:1037200003D4410701D4000704D52068416821F47F
:10373000E061416094F83D00216C49070BD52828D1
:1037400009D10648E062256384F83D6084F83E5064
:103750002046FEF78DFC70BD3D3500080000FFFFE0
:1037600001684A69D24352050FD46FF480624A61FE
:10377000002140F8301F202242738173026942F019
:10378000040202610173012070470020704710B5E8
:10379000C26A438D0168042B06D0438D032B08D0E9
:1037A000438D022B1DD012E04A6822F480624A60E9
:1037B0000CE04B6823F480634B60042A06D0022A95
:1037C00004D001680A6822F480620A60016809690D
:1037D000426A1170416A491C4162418D491E41850E
:1037E00010BD012A30D0102A2ED0042A30D0022A4F
:1037F0002ED00A6842F400720A6001680969426AC0
:103800001170416A491C4162428D521E4285026814
:1038100012690A70416A491C4162418D491E418505
:1038200001684A6822F440724A60202180F83D1005
:1038300090F83E200021402A80F83E100CD0122142
:103840000163FEF716FC10BD0A6822F48062D3E71C
:103850000A6842F48062CFE70163FEF7CBFD10BD3A
:1038600038B590F83D1022290FD1418D03290DD98B
:1038700001680969426A1170416A491C4162418DBF
:10388000491E4185418D032906D038BDC26A022AEE
:1038900002D0012906D029B10068416821F4806175
:1038A000416038BD274946F2A81300220968B1FBE0
:1038B000F3F101EB8101009101682023009C641E5B
:1038C000009422D00C68A405F8D40C6824F4806419
:1038D0000C6001684C6824F4E0644C60016809697C
:1038E000446A2170416A491C4162418D491E4185EB
:1038F00080F83D3090F83E1080F83E2040291DD0E1
:1039000012210163FEF7B5FB38BD046C44F02004BE
:1039100004644C6824F4E0644C6001680969446AFA
:103920002170416A491C4162418D491E418580F8E0
:103930003D3080F83E20FEF7D5FA38BD0263FEF731
:1039400059FD38BD480100202DE9F84F0446C06AF2
:103950001E4693460D4621680A6842F480620A605A
:10396000082807D0012805D010F5803F02D0206B31
:10397000112804D12068016841F4807101604FF082
:1039800001195B46002249462046009600F0CAFB1A
:103990004FF4007840B120680068C00501D5C4F834
:1039A00040800320BDE8F88F2069DFF884A0B0F5DF
:1039B000804F0FD00620216800EAD51747F0F000AD
:1039C000086133465A460AF10601204600F0F2FB30
:1039D00058BB03E0E8B240F001001CE02168E8B207
:1039E000086133465A465146204600F0E3FBE0B9F1
:1039F0002068416981690091016841F4807101602A
:103A00005B46002249462046009600F08BFB0028CA
:103A1000C1D147F0F1002168086133465A4651464A
:103A2000204600F0C7FB0028BCD00120BAE7000008
:103A300002000100F8B50446C06A1E460D4617464E
:103A4000082807D0012805D010F5803F02D0206B50
:103A5000122804D12068016841F480710160134686
:103A600000224FF001112046009600F05BFB40B1B0
:103A700020680068C00502D54FF400702064032060
:103A8000F8BD2069B0F5804F0ED00620216800EA0D
:103A9000D51040F0F000086133463A460B49204605
:103AA00000F088FB78B902E005F0FE0000E0E8B223
:103AB00021680861054933463A46891F204600F0CF
:103AC00079FB0028DCD00120F8BD000008000100CF
:103AD00010B5C26A90F83D1021290BD1418D51B12A
:103AE000416A026809781161416A491C4162418D4D
:103AF000491E418510BD20230021082A13D0202A09
:103B000011D012F5803F0ED00268546824F4E064AE
:103B100054601122026380F83E1080F83D3000BFEF
:103B2000FEF7A8FA10BD0268546824F4E0645460FB
:103B30000268146844F400741460016380F83D3036
:103B400090F83E2080F83E10402AE9D1FEF753FC61
:103B500010BD000010B590F83D1090F83E30C26ADC
:103B6000048DB4B1212903D0402B11D122290FD1CA
:103B7000418DE1B390F83E10402942D0416A02687D
:103B800009781161416A491C4162418D491E418594
:103B900010BD2129E8D120230021082A13D0202A92
:103BA00011D012F5803F0ED00268546824F4E0640E
:103BB00054601122026380F83E1080F83D3000BF4F
:103BC000FEF758FA10BD0268546824F4E0645460AB
:103BD0000268146844F400741460016380F83D3096
:103BE00090F83E2080F83E10402AE9D100E002E043
:103BF000FEF701FC10BD0068416821F4806141605E
:103C000010BDBDE8104000F0F3B8000078B590F8A2
:103C10003E50C26A046B90F83D6000230168222E7A
:103C200073D1066D0EB9402D6FD0056D1DB90569B4
:103C3000B5F5404F1BD0458D95B3468D484D012EAF
:103C400020D0448D022C4DD00C6844F480640C606C
:103C500001684C68240579D5AA4273D0012A71D035
:103C6000082A6FD0102A6DD0202A6BD06EE04A69E6
:103C70008A6900920A6842F480720A60016D491CE8
:103C8000016578BDAA4214D10A6822F480620A60F4
:103C900001684A68120504D50A6822F4806217E0B8
:103CA000FFE74A698A6900920A6842F400720A6072
:103CB00050E0082A10D0202A0ED0122C0AD0042A54
:103CC00003D0022A01D0102AE6D10A6842F48062A9
:103CD0000A603BE0012ADFD00A6822F480620A60B1
:103CE0000168DEE7042A11D0022A0FD0102A0DD075
:103CF0000C6844F400640C6001684C698C690094A1
:103D00000C6824F480640C6008E025E00C6844F43E
:103D100080640C6001684C698969009101684C6895
:103D2000240517D5AA4207D0012A05D0082A03D0B6
:103D3000102A01D0202A0DD14A6842F480524A60EC
:103D400008E0FFE74A6842F480524A6001684A6925
:103D500089690091036578BD48698869009078BDDC
:103D60000000FFFF90F83E10402910D00169B1F526
:103D7000804F19D0016DA9B3016D012910D1416C9B
:103D80005FF0F10201F4407142EAD11106E0016DE9
:103D90000029416C05D0C9B241F001010068016100
:103DA000704701F0FE01F9E790F83D102129416CC0
:103DB00009D0C9B241F0010102681161416B29B11A
:103DC000896A49B902E001F0FE01F5E7816B00293B
:103DD000E6D0896A0029E3D00068416841F40061B7
:103DE00041607047FFE7416CF02201F44071CBE77E
:103DF00010B590F83D10026D4AB1026D012A14D041
:103E0000026D022A16D0BDE81040FFF7F5BBC16C69
:103E10000129816C02D0C1F3072108E00268C9B210
:103E20001161016D891C016510BD816CC9B2026808
:103E3000116123E022291CD0428D0AB1212920D012
:103E4000428D002AF0D12129EED101684A6822F47E
:103E5000E0624A6001680A6842F400720A60002168
:103E60000163202280F83D2080F83E10FEF7C3FA5F
:103E700010BD01680A6842F480720A60016D491C35
:103E8000D1E7416A026809781161416A491C4162BF
:103E9000418D491E418510BD38B50C4690F83D2036
:103EA00000212825954302680B4605D05169916988
:103EB000009180F83C3038BD556825F48065556028
:103EC000E243540700D50121120601D5828900E0A2
:103ED000028B80F83C3092B2FDF789FE38BD0000BD
:103EE0002DE9F04190F83D300446C26A00212026B9
:103EF0001E4F00686FF48065082A01D0202A01D186
:103F0000282B04D0212B17D04561BDE8F081E76252
:103F1000426822F4E06242602068456120680268DD
:103F200022F480620260216384F83D6084F83E10D0
:103F30002046FEF79DF8E8E7E7622122226384F835
:103F40003D6084F83E10416821F4E06141602068E2
:103F500045612068016821F4806101602046FFF717
:103F60004BFB2046FEF787FACFE700000000FFFF7B
:103F7000F8B590F83D6004460068416821F4E061BE
:103F800041602068002541690091016841F001010C
:103F900001602068016821F4806101602068416847
:103FA000090520D5474F222E48D02A2E46D0616BD6
:103FB000096849686185618D19B1216C41F004017E
:103FC0002164416821F400614160606BFDF7E8FB0A
:103FD000012808D0606B4763606BFDF795FB10B15B
:103FE000606B416B8847608D08B320684169C943A5
:103FF000490708D40069616A0870606A401C606201
:10400000608D401E608520684169C943490608D417
:104010000069616A0870606A401C6062608D401EC1
:104020006085608D18B1206C40F004002064206C25
:1040300000B32046BDE8F840FFF7E6BAA16B096877
:1040400049686185618D19B1216C41F004012164D9
:10405000416821F400614160A06BFDF7A1FB0128DC
:10406000C1D0A06B4763A06BFDF74EFB0028BAD010
:10407000A06BB6E72A2E06D12563282084F83D00E0
:104080002046FEF7F7F994F83D10202028290DD09E
:10409000216B222901D0222E07D1256384F83D000F
:1040A00084F83E502046FEF7E5F9F8BD0649E16286
:1040B000256384F83D0084F83E502046FDF7D8FF84
:1040C000F8BD00003D3500080000FFFF70B5164642
:1040D0000D4604461EE02046FFF742FB08B10120D2
:1040E00070BD681C16D0FDF77BFD801BA84200D870
:1040F00085B920684069C04340070BD5002044F8CB
:10410000300F20216173A073216941F020012161EA
:104110002073E4E720684069C0434007DBD40020F7
:1041200070BD00002DE9F047984617460D4604463D
:10413000C1F30746DDF820902AE000BFB8F1FF3F49
:1041400026D0FDF74DFDA0EB0901414502D8B8F19D
:10415000000F1DD12068012E16D0806925EA0000CD
:104160000004000C12D00020B84211D1002044F805
:10417000300F20216173A073216941F0200121617A
:1041800020730120BDE8F0874069E7E70120EBE7F5
:104190002068012E0AD0806925EA00000004000C86
:1041A00006D00020B842C9D00020EBE74069F3E711
:1041B0000120F7E72DE9F047984616460D460446DC
:1041C0004FF000094FF0200AC1F3074723E02068B1
:1041D0004069C043400515D42068016841F400716E
:1041E000016021686FF480604861C4F8309084F801
:1041F0003DA084F83E90216C41F00401216484F8D4
:104200003C9021E0701C06D0FDF7EAFCA0EB080012
:10421000B04203D816B1012F1FD021E02068012F32
:1042200015D0806925EA00000004000C18D000BFFA
:1042300044F8309F84F80DA084F80E90216941F075
:104240002001216184F80C900120BDE8F0874069CD
:1042500025EA00000004000CEAD12068406901E072
:104260002068806925EA00000004000CAFD1ECE76B
:104270002DE9F041002590460E460446202728E00F
:104280004069C043C0060CD454F8301B6FF01000D6
:10429000486144F810596777A577206A206225772E
:1042A00014E0FDF79DFCA0EB0800B04200D886B9F1
:1042B00020684069C04340060BD544F8305F6773FF
:1042C000A573206940F02000206125730120BDE81E
:1042D000F08120684169C9434906D1D40020F6E73E
:1042E00070B516460D4604461EE02046FFF738FA24
:1042F00008B1012070BD681C16D0FDF771FC801B51
:10430000A84200D885B920684069C04300060BD593
:10431000002044F8300F20216173A073216941F01F
:10432000200121612073E4E720684069C043000652
:10433000DBD4002070BD0000DFF8D0804FF40057C0
:10434000002239464046FDF746FCDFF8C4A04FF492
:104350008049002249465046FDF73DFC2D4C07217F
:10436000206802F0E7FA0421206802F011FB2A4DD0
:10437000BE0031462846FDF729FC88BB322002F0FA
:104380002DF931462846FDF721FC18B13AE00A2004
:1043900002F024F931462846FDF718FC0028F6D033
:1043A0000021206802F0C6FA83460721206802F047
:1043B000C1FA5FEACB7005D00221206802F0E8FA6A
:1043C000012207E05FEA8B700BD50421206802F020
:1043D000DFFA002239464046FDF7FDFB00220AE0E5
:1043E00010E00121206802F0D3FA0022394640464D
:1043F000FDF7F1FB012249465046FDF7ECFB322068
:1044000002F0ECF8642002F0E9F8B2E70010014095
:10441000000C01405000002000080140FEB50024BF
:104420003E48009401943C490294016089158160E2
:104430000125057304750A2606614FF46021446066
:10444000C161FCF7C7FF08B1FCF712FCCDE90045DC
:104450000724694631480294FCF7B6FE08B1FCF720
:1044600007FC0095022569462C480195FCF7ACFE37
:1044700008B1FCF7FDFB0095032569462748019527
:10448000FCF7A2FE08B1FCF7F3FB00950425694692
:1044900022480195FCF798FE08B1FCF7E9FB00956E
:1044A000052569461D480195FCF78EFE08B1FCF70D
:1044B000DFFB00950625694618480195FCF784FE48
:1044C00008B1FCF7D5FBCDE9005469461348FCF769
:1044D0007BFE08B1FCF7CCFB0094082469460F482A
:1044E0000194FCF771FE08B1FCF7C2FB00940924AB
:1044F00069460A480194FCF767FE08B1FCF7B8FB6F
:10450000CDE9004669460548FCF75EFE002801D06B
:10451000FCF7AEFBFEBD000000240140A80A00200D
:10452000114808B5416941F001014161406900222B
:1045300000F00100009005210B20FEF72FF80B2062
:10454000FEF71EF8002205210C20FEF727F80C20AC
:10455000FEF716F8002205210E20FEF71FF8BDE831
:1045600008400E20FEF70CB8001002407CB502F0A7
:1045700001FA3B4CA061012002F0A4FAE0610120A5
:1045800002F0A0FAA062002830D00322002101200E
:1045900002F0A3FA206203220021012002F09DFA1A
:1045A000606200223C210A2002F097FA206100227A
:1045B00030210A2002F091FA60612A4A00212A483B
:1045C00001F01AFA2063022004F10801C501CDE9C7
:1045D000000100232A4625A1274802F007FEE062D9
:1045E000012807D025A000F0EDFCFEE728A000F090
:1045F000E9FCFEE71A480326CDE9006000232A46BD
:104600002BA12E4802F0F2FDE062012803D02CA07D
:1046100000F0D8FCFEE712480023001DCDE9006041
:104620002A462BA12E4802F0E1FDE062012803D0CA
:104630002CA000F0C7FCFEE7094904200C31CDE9AD
:10464000000100232A462CA12E4802F0CFFDE06293
:10465000012803D02CA000F0B5FCFEE77CBD0000D3
:1046600038000020807600088D49000855415254DA
:104670005F5461736B000000A94D0008554152540E
:104680005F5461736B204661696C656400000000D3
:104690004661696C656420746F206372656174653E
:1046A0002055415254204D757465782E0A00000043
:1046B0004144435F5461736B00000000590B0008D4
:1046C0004144435F5461736B204661696C656400CB
:1046D000464443323231345F5461736B0000000052
:1046E00001110008464443323231345F5461736B28
:1046F000204661696C6564004B65795F5461736B3A
:1047000000000000394300084B65795F5461736B0A
:10471000204661696C6564002DE9F04186B0002493
:1047200035480094019402940394816941F010018A
:104730008161816901F010010491816941F02001DA
:104740008161816901F020010491816941F00401D6
:104750008161816901F004010491816941F00801DE
:1047600081618069254F00F008004FF400550490E6
:10477000002229463846FDF72EFADFF88480012210
:1047800029464046FDF727FA002244F220314046F0
:10479000FDF721FA0095022601250396CDE9015483
:1047A00069463846FDF722F92803CDE90004694639
:1047B00040460294FDF71AF94FF40C50CDE900057C
:1047C000CDE9024669464046FDF710F944F2200063
:1047D000CDE900050320CDE9024069464046FDF7DA
:1047E00005F9E803CDE90004694606480294FDF79F
:1047F000FDF806B0BDE8F081001002400010014055
:10480000000C0140000801400D4810B50B49016043
:104810000C49416000214FF480428160C0E90312DD
:1048200041618161C1610162FDF75EFB002803D037
:10483000BDE81040FCF71CBA10BD00000054004059
:104840001C0B0020801A060010B586B00024174803
:104850000094019402940394049413490594016014
:1048600041F61F41C0E901144FF4FA71C0E9031485
:104870008461FEF7FDF908B1FCF7FAF94FF48050B6
:10488000009069460948FEF76DFA08B1FCF7F0F9A7
:10489000049404A905480594FEF7B6F9002801D050
:1048A000FCF7E6F906B010BD00040040700B0020D4
:1048B00010B586B000241748009401940294039424
:1048C000049413490594016041F61F41C0E90114A5
:1048D0006421C0E903148461FEF7CAF908B1FCF74A
:1048E000C7F94FF48050009069460A48FEF73AFA3B
:1048F00008B1FCF7BDF9049404A906480594FEF735
:1049000083F9002801D0FCF7B3F906B010BD000010
:1049100000080040B80B00200C4810B50A4901609F
:104920004FF4E1314160002181600C22C160C0E997
:1049300004128161C161FEF77DFC002803D0BDE84F
:104940001040FCF795B910BD00380140000E002062
:104950000C4810B50A4901604FF4E1314160002173
:1049600081600C22C160C0E904128161C161FEF75F
:1049700061FC002803D0BDE81040FCF779B910BDF8
:1049800000480040480E0020FEE7FEE7012000F04E
:10499000DDFFFBE710B5502080F31188BFF34F8F88
:1049A000BFF36F8F02F08EFC18B104494FF08050B6
:1049B0000860002080F3118810BD000004ED00E0C5
:1049C00030B593B028216846FBF723FC14210AA8D0
:1049D000FBF71FFC002501200F9510951195010490
:1049E00012958DE8230004904FF4E010CDE90810F3
:1049F000022407946846FDF775FF08B172B6FEE71A
:104A00000AA90F2081E831004FF48060CDE90D053F
:104A100002210AA8FDF76AFE08B172B6FEE74FF45C
:104A2000004011900F940FA8FDF7EAFD002801D077
:104A300072B6FEE713B030BD704700000148FEF7C4
:104A400000BA0000180F0020F0B50268164B174C92
:104A5000174D4FF08047984205D0B84203D0A0428E
:104A600001D0A84203D122F070064A68324398422E
:104A700005D0B84203D0A04201D0A84203D122F40D
:104A80004074CA6822434C6922F0800222430260CB
:104A90008A68C2620A688262984201D10969016328
:104AA00001214161F0BD0000002C014000040040E4
:104AB0000008004010B5846842EA032224F47F44D1
:104AC0000A432243826010BD826822F070020A43CA
:104AD00042F007018160704710B5036A046A24F050
:104AE00001040462846924F0F00444EA021423F00F
:104AF0000A020A438461026210BD10B5036A046AA7
:104B000024F010040462846923F0A00324F47044A8
:104B100044EA023243EA01118261016210BD10B51C
:104B2000406A0021C185C184FEF74CFA10BD70B502
:104B3000446A2068406994F84110C0F3C010002511
:104B4000212904D118B1E584204600F062F82068DC
:104B5000406994F84210C0F38010222904D118B1A2
:104B6000E585204600F02EF8606C40F0100060648F
:104B70002046FEF727FA70BD10B50146406A096865
:104B80000968890616D40021C1840168143151E8EE
:104B9000002F22F0800241E80023002BF5D10168AC
:104BA0000C3151E8002F42F0400241E80023002B75
:104BB000F5D110BDFEF79CFC10BD10B5406AFEF7A4
:104BC000AFFC10BD01680C3151E8002F22F4907247
:104BD00041E80023002BF5D10168143151E8002F82
:104BE00022F0010241E80023002BF5D1016B0129DD
:104BF00009D101680C3151E8002F22F0100241E880
:104C00000023002BF5D1202180F842100021016300
:104C1000704701680C3151E8002F22F0C00241E8D2
:104C20000023002BF5D1202180F84110704708B5F2
:104C300090F84210222901D0022008BD82684FF46A
:104C400080539A4201D1016921B1816A9A421BD0F5
:104C50004AB10AE00268816A5268C2F308020A8017
:104C6000816A891C08E0026972B10268526802F028
:104C70007F020A70816A491C8162C18D491E090444
:104C8000090CC18503D01BE002685268F1E7016896
:104C9000CA6822F02002CA600168CA6822F48072E1
:104CA000CA6001684A6922F001024A61202180F845
:104CB000421000214163026B012A03D0FEF78EFBF4
:104CC000002008BD016301680C3151E8002F22F07B
:104CD000100241E80023002BF5D101680A68D206D2
:104CE00002D50A6849680091818DFEF76AF9E7E705
:104CF00070B5044600680169E26821F4405111432F
:104D000001612169A0680843616908432168CA6894
:104D100041F20C639A430243CA6020684169A26968
:104D200021F44071114341611E492068884202D13B
:104D3000FDF7A2FD01E0FDF78FFD00EBC00101EBE7
:104D40000012606864218000B2FBF0F3B3FBF1F362
:104D50006FF018067343B2FBF0F5B2FBF0F605EB0B
:104D60008305322303EB0515B5FBF1F5B6FBF1F630
:104D700005F0F00505EB0615B2FBF0F6B2FBF0F01E
:104D8000B0FBF1F06FF01802504306EB800003EB2C
:104D90000010B0FBF1F0216800F00F00284488609B
:104DA00070BD0000003801409CB002F085FADFF8C9
:104DB0004CA1534E4FF400790F9000244D464946C4
:104DC0005048FBF726FA0021DAF8000001F0B2FDA6
:104DD00080466421306802F013F901287ED118F072
:104DE000060F36D04848002210A9006802F06CF87F
:104DF00001282ED1434F2946384644A200F0F2F84C
:104E000004460025BB4610A800EBC5010022D1E9ED
:104E10000401404BFBF739FBFBF75AFC0346C4F592
:104E200000710F460BEB04003BA200F0DBF80028FA
:104E300005DB874203D96D1C0444042DE3DB44B138
:104E40000BEB04020D2002F8010C0A200BF8040001
:104E5000641C18F0050F36D03048002269460068FF
:104E600002F032F801282ED1264FC4F5007138190E
:104E70002BA200F0B7F804440025EB464FEA0708E0
:104E80000BEB850028494069FBF726FAFBF707FC86
:104E90000346C4F500710F4608EB04001EA200F0A3
:104EA000A1F8002805DB874203D96D1C04440A2DB4
:104EB000E6DBBCB108EB04020D2002F8010C0A206D
:104EC00008F80400641C6CB10E49A2B201F5007030
:104ED000FEF7D2FA30B96421144800E008E0006817
:104EE00002F08EF800231A461946306801F090FE51
:104EF00014210FA801F098FB5FE70000500000208C
:104F000060000020000C00204C0000204341502C89
:104F10000000000000408F4025642C004800002065
:104F20004144432C0000000000007A445C00002053
:104F30002DE9F041984617460E460446069D27E0A7
:104F4000681C25D02DB1FCF74BFEA0EB0800A84251
:104F50001ED920680C3050E8001F21F4D07140E8C1
:104F60000012002AF5D12068143050E8001F21F00B
:104F7000010140E80012002AF5D1202084F8410008
:104F800084F84200002084F840000320BDE8F0814E
:104F90002068006836EA000004D00020B842CFD074
:104FA0000020F3E70120F9E70148FEF70DB8000003
:104FB000000E00200148FEF707B80000480E002050
:104FC000FEE700000FB4054B10B503A9044A029890
:104FD00000F004F910BC5DF814FB0000F95800085B
:104FE000C40100200FB47CB50C0009AD01D0611ED6
:104FF00000E00021CDE90001064B6A4629460898E9
:1050000000F0ECF8002C02D0009A002111707CBC5A
:105010005DF814FBE35800080907090E002804DBBB
:1050200000F1E02080F80014704700F00F0000F15C
:10503000E02080F8141D704702E008C8121F08C164
:10504000002AFAD170477047002001E001C1121F09
:10505000002AFBD1704700002DE9FF5F82B00021DC
:10506000DDE90430020DDDF840B0034318D044F60A
:105070001050A2F2FF3242431514119801281FD09C
:10508000A5EB0B00401C5FEA000A4FF000064E4FF4
:10509000DFF83891B046504615D5CAF1000413E048
:1050A000119801244AA3012801D16FEA0B0102984B
:1050B000119AC0E90031C0E9024206B0BDE8F09F94
:1050C000CBF10000DFE704460021404A491842EBDB
:1050D0000450CDE9001012E0E00707D032463B460D
:1050E00040464946FBF7D1F98046894632463B4661
:1050F00010461946FBF7C9F906460F466410002C06
:10510000EAD1DDE90401DDE90023BAF1000F06DA96
:10511000FBF7BBF942464B46FBF7B7F905E0FBF757
:1051200026FA42464B46FBF722FA04460E46002278
:10513000284BFBF713FC03D84FF0FF30014607E084
:105140000022254B20463146FBF7F8F8FBF7EEFB33
:10515000102409E0002C0ADB0A220023FBF700FBE5
:10516000039B30321A55641E50EA0102F2D1641CCE
:10517000039AC4F111031444119A012A03D00122A5
:1051800008430DD10AE0084304D000204FF0110B72
:10519000119072E7A3EB0B056D1E0DE05B4504DD7E
:1051A0004FF0000205F1010504E003DA4FF00002C0
:1051B000A5F10105002AECD002981199C0E902314D
:1051C000C0E9004579E70000000014400000F03F0E
:1051D000300000000000F0430000E03F2DE9FF4FE9
:1051E00095B09A46884606460025EEE1252877D1F7
:1051F00000242746F94A0121039400E0044316F8ED
:10520000013F203B01FA03F01042F7D130782A2801
:1052100011D06FF02F033078A0F13002092A16D890
:10522000039A44F0020402EB820203EB42021044B0
:10523000761C0390EFE758F8042B0392002A03DA58
:10524000504244F40054039044F00204761C307839
:105250002E2816D116F8010F44F004042A280DD088
:105260006FF02F023078A0F13003092B09D807EB3B
:10527000870302EB4303C718761CF3E758F8047B57
:10528000761C30786C280FD006DC4C2817D06828A4
:105290000DD06A2814D104E0742810D07A280FD1D8
:1052A0000DE044F400140AE044F4801401E044F4F6
:1052B00040147278824202D104F58014761C761C68
:1052C000307866280BD013DC582877D009DC00280A
:1052D00075D04528F6D04628F4D047281AD193E156
:1052E00018E0632835D0642879D0652812D18BE185
:1052F000702873D008DC6728F1D069286FD06E2839
:105300000DD06F2806D1ACE073282CD0752874D04E
:10531000782853D05246179990476D1C54E1C4F336
:105320000250022809D003280DD0D8F80010042814
:105330000DD00D6008F1040846E1D8F80010EA1716
:10534000C1E90052F6E7D8F800100D80F2E70D70C1
:10535000F0E718F8041B8DF8001000208DF801000C
:10536000EB46012003E058F804BB4FF0FF30610723
:105370004FF0000102D40DE009F101018946B94264
:105380000FDA8145F8DB1BF809100029F4D108E099
:1053900009F1010189468142FADB1BF80910002955
:1053A000F6D103985346A0EB090721463846179AD1
:1053B00000F080FA284400EB090507E044E008E12A
:1053C0000DE01BF8010B524617999047B9F10109FE
:1053D000F7D2534621463846179AF2E039E00A21BF
:1053E000C4F302524FF0000B0091022A06D058F885
:1053F000040BC117032A09D00AE023E008F10700D3
:1054000020F00702F2E80201904605E000B2C11761
:10541000042A01D140B2C117002906DA0A46002148
:10542000404261EB02012D2202E0220504D52B222D
:105430008DF80420012203E0E20701D02022F7E7E3
:10544000914657E00A2100E010214FF0000B009137
:105450000BE010214FF0000B44F0040408270091EA
:1054600003E008204FF0000B0090C4F30252022A20
:1054700005D058F8040B0021032A08D008E008F1F1
:10548000070020F00702F2E80201904603E080B234
:10549000042A00D1C0B24FF0000922072AD5327881
:1054A000702A07D0DDF800C08CF0100C5CEA0B0C01
:1054B00005D00EE040228DF80420012208E050EAD9
:1054C000010306D030238DF804308DF80520022228
:1054D0009146009B83F0080353EA0B030AD150EA7C
:1054E000010201D1620705D530228DF804204FF06A
:1054F00001097F1E3278582A04D039A20C920CAAD6
:1055000002920BE03BA2F9E75B46009AFBF728F911
:105510000C9B9B5C029A521E0292137050EA01028D
:10552000F2D1029804A9081A00F1200B600702D5F5
:1055300024F4803400E001275F4502DDA7EB0B0077
:1055400000E0002000EB0B01009003984944401A52
:105550000390E00306D453462146179A039800F0BF
:10556000A9F90544002706E001A85246C05D179935
:1055700090476D1C7F1C4F45F6DBE0030CD553466E
:105580002146179A039800F095F9054404E030206D
:105590005246179990476D1C0099481E00900029AB
:1055A000F5DC08E00298029952460078491C029105
:1055B000179990476D1CBBF10001ABF1010BF1DCB9
:1055C0005BE100F065F90544761C307800287FF433
:1055D0000DAE19B02846BDE8F08F00000928010083
:1055E0003031323334353637383961626364656659
:1055F000000000003031323334353637383941421B
:105600004344454600000000600700D4062708F127
:10561000070020F00700F0E80223804603F0004C6A
:105620005FEA0C0001D097A009E0200501D596A003
:1056300005E0E00701D095A001E0AFF24C00139027
:10564000307823F0004365280CD006DC452809D0CB
:1056500046281DD047287FD13BE0662818D0672810
:105660007AD136E00021112F01DB112000E0781CF7
:10567000CDE9000104A90CA8FFF7EEFCDDE90D015E
:105680000C9A4FF0000B07F10109109200914EE0C7
:105690004FF000400097CDE9011004A90CA8FFF7D6
:1056A000DBFCDDE90D020C9B0F994FF0000B9146DE
:1056B0001093009211B9791C00EB0109B7EB0900B6
:1056C00003D4C0F1FF3B07F10109A9EB07000190EA
:1056D00042E0012F00DA01270021112F01DD112006
:1056E00000E03846CDE9000104A90CA8FFF7B4FC9E
:1056F000DDE90D010C9A00914FF0000BB9461092B4
:1057000021070FD4009A4A4503DA914601E0A9F136
:105710000109B9F1010F05DD109AA9F10101515CF0
:105720003029F4D0B84202DA10F1040F03DA012173
:10573000CDE9011010E0002803DC8344A9EB00014F
:1057400002E0411C494500DD8946A0EB0B00401CEE
:1057500001904FF000400290200705D40198484581
:1057600002DB4FF0FF30019000208DF84B000298D3
:105770000DF14B07B0F1004F25D002200C902B20EB
:105780000D90029800280CDA404202902D200D90D6
:1057900007E00A210298FAF7CDFF3031029007F8AE
:1057A000011D0C99481E0C900029F2DC029800287B
:1057B000EFD1791E0D980870307800F0200040F08D
:1057C000450007F8020D11A8C01BC01D02901398D8
:1057D000007800B1012000EB0901019801EBE071B4
:1057E000029801440398401A401E0390E00306D437
:1057F00053462146179A039800F05CF80544139825
:10580000007818B15246179990476D1CE00323D5D4
:1058100053462146179A039800F04CF805441BE0C4
:10582000BBF1000F07DB0098584504DD109817996D
:1058300010F80B0001E0179930205246904701986C
:105840000BF1010B401E05F10105019004D12E2042
:105850005246179990476D1CB9F10001A9F1010951
:10586000DEDC05E017F8010B5246179990476D1CD6
:105870000299481E02900029F4DC53462146179AEB
:1058800003989EE62D0000002B0000002000000081
:105890002DE9F041044600251E461746880404D42D
:1058A00005E039462020B0476D1C641EF9D5284616
:1058B000BDE8F0812DE9F041044600251E469046E2
:1058C000C80301D5302700E02027880404D505E06F
:1058D00041463846B0476D1C641EF9D52846BDE8E0
:1058E000F0814A68002A06D00A68531C0B601070C9
:1058F0004868401E4860704713B54FF6FF73012299
:1059000069460248FDF76BFD00981CBD000E0020A3
:10591000FCF7BAFDFFF754F8FEF7FEFEFEF700FEB7
:10592000FEF77CFDFEF770FFFEF7F6FFFFF710F8BD
:10593000FEF78AFFFEF7BCFFFBF74AFA00F020F8FB
:10594000FEF714FE00F038F8FEE7000010B5EFF3A4
:10595000058149B9EFF3108131B908490968022975
:1059600005D1EFF3118111B16FF0050403E00024BC
:1059700008B100F033FE204610BD00009C0100205D
:10598000EFF3058058B9EFF3108040B90949086872
:10599000022801D030B109E0EFF3118030B16FF08F
:1059A0000500704701200860002070474FF0FF306D
:1059B000704700009C01002010B5EFF3058060B92E
:1059C000EFF3108048B90B490868022802D001287B
:1059D00006D00BE0EFF3118040B16FF0050010BD71
:1059E0000220086000F028FF002010BD4FF0FF30BB
:1059F00010BD00009C010020F0B585B04FEA010306
:105A00004FF00004EFF305810394A1BBEFF3108185
:105A100089BB21490968022902D1EFF3118151BBE9
:105A200048B3802618218DF8104004AD42B31768A2
:105A300007B13D4697691FB139467F1E382F02D204
:105A40001779FF0702D0002005B0F0BD576907B1F4
:105A5000BE08D2F808C0BCF1000F0DD0D4685C2C91
:105A600018D312693AB137B18DE80610324629468B
:105A700001F0E9FB03900DE0D7685FB912694AB9FC
:105A800003AACDE90012B2B2294601F0AFFB01280A
:105A900000D003940398D7E79C0100202DE9F04142
:105AA000134C0F46054666692068001D00F066FC31
:105AB000681C07D137B12168BDE8F0410D48091DC8
:105AC00000F0ACBC20683544B5424560216805D281
:105AD000A068BDE8F041091D00F088BC6068091DA0
