:020000040800F2
:1000000090070020D50100085B0C0008010A0008D9
:10001000590C00088D040008711000080000000051
:100020000000000000000000000000008D0D00082E
:100030008F04000800000000C10C0008610E0008D9
:10004000EF010008EF010008EF010008EF010008D0
:10005000EF010008EF010008EF010008EF010008C0
:10006000EF010008EF010008EF010008EF010008B0
:10007000EF010008EF010008EF010008EF010008A0
:10008000EF010008EF010008EF010008EF01000890
:10009000EF010008EF010008EF010008EF01000880
:1000A000EF010008EF010008EF010008EF01000870
:1000B000EF010008EF010008EF010008EF01000860
:1000C000EF010008EF010008EF010008EF01000850
:1000D000EF010008B50E0008EF010008EF0100086D
:1000E000EF010008EF010008EF010008EF01000830
:1000F000EF010008EF010008EF010008EF01000820
:10010000EF010008EF010008EF010008EF0100080F
:10011000EF010008EF010008EF010008EF010008FF
:10012000EF010008EF010008EF010008EF010008EF
:1001300000F002F800F03FF80AA090E8000C8244BA
:100140008344AAF10107DA4501D100F034F8AFF297
:10015000090EBAE80F0013F0010F18BFFB1A43F0A5
:100160000103184798140000B8140000103A24BF87
:1001700078C878C1FAD8520724BF30C830C144BF0C
:1001800004680C607047000000230024002500264E
:10019000103A28BF78C1FBD8520728BF30C148BFEA
:1001A0000B607047642900F07780002070471FB50E
:1001B0001FBD10B510BD00F037F91146FFF7F7FF6E
:1001C00000F0E0FF00F055F903B4FFF7F2FF03BCC5
:1001D00000F04FFF0948804709480047FEE7FEE767
:1001E000FEE7FEE7FEE7FEE7FEE7FEE7FEE7FEE7E7
:1001F00004480549054A064B70470000650E000893
:100200003101000890010020900700209003002099
:1002100090030020704700000FB4044910B503AAF2
:10022000029800F0D3F810BC5DF814FB30000020F9
:100230002DE9F0410E460446002020622046E16888
:10024000884730B3252805D0D4E901219047206A9A
:10025000401CF2E7E168204600278847050018D0D7
:10026000A5F14100192802D820354FF40067324625
:10027000294620462760FFF795FF40B1012804D0AA
:10028000F61D26F007060836D8E7361DD6E72846BD
:10029000DAE7206ABDE8F0812DE9F0410646002446
:1002A00010687529314616A510D0AFF300800028DC
:1002B00002DA404213A507E031688A0701D512A58A
:1002C00002E0490704D511A5012401E0AFF3008045
:1002D00000210A2206F1240709E0B0FBF2FCB0FB82
:1002E000F2F302FB1C00303078541846491C0028F9
:1002F000F3D123462A463046BDE8F04100F00CB861
:10030000000000002D0000002B0000002000000075
:1003100070477047704770472DE9F0470D46994682
:100320009246044600F124080168880604D5E06975
:1003300021F01001216000E00120A84201DD471BEF
:1003400000E00027A1697A1902EB0900081AA061F0
:100350002078C00602D42046AFF30080002608E0D3
:10036000D4E901211AF806009047206A401C761C47
:1003700020624E45F4DB2078C0060AD52046AFF354
:10038000008006E0D4E9012130209047206A401C1B
:100390002062381EA7F10107F4DC07E0D4E901214F
:1003A00018F805009047206A401C2062281EA5F11D
:1003B0000105F3DC2046AFF300802078000602D56B
:1003C0000220BDE8F0870120FBE70000074B70B575
:1003D0000D467B4400F011F80446284600F020F852
:1003E00010B14FF0FF3070BD204670BD970D00007A
:1003F00001694A1C02610878704700B58FB0CDE9E9
:1004000001310021059105497944CDE903101146D8
:100410006846FFF70DFF0FB000BD0000E5FFFFFFCE
:10042000007B00F080007047754600F02BF8AE4668
:1004300005006946534620F00700854618B020B5F0
:10044000FFF7D6FEBDE820404FF000064FF0000752
:100450004FF000084FF0000B21F00701AC46ACE86C
:10046000C009ACE8C009ACE8C009ACE8C0098D46D9
:10047000704710B50446AFF300802046BDE8104039
:10048000FFF7A2BE0048704730010020FEE770472A
:100490002DE9F04188466424002806D0012808D0C0
:1004A00002280AD003280FD10BE0002601270825D7
:1004B0000AE002260327042506E004260527022574
:1004C00002E006260727012518212A2000F0BCF8A3
:1004D00005E018212A2000F0B7F8641E24B20CB100
:1004E0002842F6D074B131462A2000F0ADF8040459
:1004F00039462A2000F0A8F82043C8F8000001205F
:10050000BDE8F0810020FBE710B50A490020FFF7A5
:10051000BFFF08490120091DFFF7BAFF0549022066
:100520000831FFF7B5FF0349BDE810400C31032047
:10053000FFF7AEBF0000002010B57F212A2000F099
:1005400083F80146A1F54050553804D034A0FFF798
:1005500063FE002010BD38A0FFF75EFE00F09BF8A0
:1005600041F288342146002000F05CF92146012048
:1005700000F058F92146022000F054F921460320EA
:1005800000F050F9C821002000F06AF9C8210120CC
:1005900000F066F9C821022000F062F9C8210320AA
:1005A00000F05EF901220221002000F07BF8012218
:1005B0000221104600F076F802210122084600F0E0
:1005C00071F801220221032000F06CF8002000F0F5
:1005D000FBF8002000F0B9F8012000F0A5F8002099
:1005E00000F0E1F805220221012000F00BF90B21B7
:1005F000002000F0BBF80B21012000F0B7F80B2120
:10060000022000F0B3F80B21032000F0AFF8002027
:1006100000F043F9642000F08FFD012010BD0000C0
:100620000D0A4644433232313420496E6974204603
:1006300061696C65642121000D0A46444332323100
:10064000342049443A25640070B504460D4600F054
:100650009BFA6006000E00F06DFA00F0D3FA28460F
:1006600000F068FA00F0CEFA00F08EFA012000EBFC
:100670004400C0B200F05EFA00F0C4FA012000F0BD
:1006800025FA0502002000F021FA40EA050400F0F6
:1006900099FA204670BD1C214FF400422A2000F038
:1006A0000DB9000070B5044610464FF6FF7202EA1D
:1006B0000135C0F309021543184A115500F036FF01
:1006C00002460B460020164900F0D8FD154A02EB01
:1006D000C40203C264B1012C11D0022C16D0032C29
:1006E0001BD12A46BDE8704017212A2000F0E6B849
:1006F0002A46BDE8704014212A2000F0DFB82A46BF
:10070000BDE8704015212A2000F0D8B82A46BDE87F
:10071000704016212A2000F0D1B870BD24000020BE
:10072000D01283414800002010B504461A212A2027
:10073000FFF78AFF20F400720CB142F400721A2114
:10074000BDE810402A2000F0B9B810B504461A21BF
:100750002A20FFF779FF20F400620CB142F4006216
:100760001A21BDE810402A2000F0A8B84FF6FF7209
:1007700002EAC122002809D001280BD002280DD09E
:1007800003280FD121212A2000F098B81E212A2009
:1007900000F094B81F212A2000F090B820212A20D0
:1007A00000F08CB8704710B504461A212A20FFF7D4
:1007B0004BFF20F040020CB142F040021A21BDE88C
:1007C00010402A2000F07AB810B504461A212A20D9
:1007D000FFF73AFF20F080020CB142F080021A21AC
:1007E0002A2000F06BF819212A20FFF72DFF20F0B6
:1007F00001020CB142F001021921BDE810402A208B
:1008000000F05CB8002807D0C00340EA4130104334
:1008100080B240F4027201E042F402721B212A20ED
:1008200000F04CB8FF291AD950B101280DD0022888
:1008300010D0032813D10A460B212A2000F03EB81D
:100840000A4608212A2000F039B80A4609212A2040
:1008500000F034B80A460A212A2000F02FB8704769
:1008600000280AD001280DD0022810D0032813D167
:100870000A4613212A2000F021B80A4610212A2016
:1008800000F01CB80A4611212A2000F017B80A46C9
:1008900012212A2000F012B8704710B504461A2120
:1008A0002A20FFF7D1FE20F400520CB142F400528E
:1008B0001A21BDE810402A20AFF3008070B505462C
:1008C0000E46144600F060F96806000E00F032F99A
:1008D00000F098F9304600F02DF900F093F9200A65
:1008E00000F028F900F08EF9E0B200F023F900F0F2
:1008F00089F9BDE8704000F065B92DE9F0410022AA
:10090000CC7804F00F03E40601D58C7823430C78EF
:100910004FF00F0714F0FF0F4FF0010C1CD00568CB
:100920000CFA02F40E882640A64211D1960007FA6E
:1009300006F825EA080503FA06F848EA0505CE7820
:10094000282E02D0482E02D002E0446100E004616B
:10095000521C082AE4D305600A88FF2A1ED945687C
:10096000002202F108060CFA06F40E882640A64280
:1009700010D1960007FA06F825EA080503FA06F8EA
:1009800048EA0505CE78282E00D14461CE78482E5D
:1009900000D10461521C082AE3D34560BDE8F08110
:1009A000F0B5154C002801DAE36900E06368C0F394
:1009B0000346420D120185B2C0F301579540032F43
:1009C00007D0C2020CD50322B240934343F07062B9
:1009D00009E023F07062636823F07063636002E0F3
:1009E000AB4343F0706201B12A43002801DAE261AF
:1009F000F0BD6260F0BD0000000001400161704781
:100A0000FEE7000000B50D4900220A6000F032FB4D
:100A10000B48036823F470430360036843F44053B6
:100A200003604A6000F026FB0120086000F022FB12
:100A30000A605DF804EB00F01DBB000098812142C4
:100A4000000C014038B50121082000F03BF90121DC
:100A5000084600F037F901210A48FFF7A1FFC0203E
:100A6000ADF8000010208DF8030003208DF802007F
:100A7000054C69462046FFF740FFC0212046FFF79E
:100A8000BDFF38BD00023000000C014000B50D492B
:100A900000220A6000F0EEFA0B48036823F470436A
:100AA0000360036843F44053036001234B6000F08C
:100AB000E1FA0B6000F0DEFA0A605DF804EB00F08A
:100AC000D9BA000098812142000C014070B5064659
:100AD0000024164A0123C2F89C311548016821F40C
:100AE00070410160016841F400410160002100256E
:100AF0006006040EC2F8985100F0BCFAC2F89831B2
:100B000000F0B8FAD2F81C0108B1641CE4B2491C28
:100B1000C9B20829ECD3C2F898511EB1FFF772FF91
:100B2000204670BDFFF7B2FFFAE7000000802142C7
:100B3000000C014030B502461148016821F47041B3
:100B40000160016841F4405101600E4B0024C3F87C
:100B500098410021012500F08DFAD009C3F89C01CD
:100B60005006020EC3F8985100F084FAC3F8984179
:100B700000F080FA491CC9B20829ECD330BD00004E
:100B8000000C01400080214200B50C48016821F4AE
:100B900070410160016841F4405101600849012041
:100BA0004860086000F066FA00224A6000F062FACD
:100BB0000A605DF804EB00F05DBA0000000C014033
:100BC0009881214200B50D48016821F4704101600F
:100BD000016841F440510160094900220A6000F0B7
:100BE00049FA4A6000F046FA01220A6000F042FA2F
:100BF0004A605DF804EB00F03DBA0000000C0140D3
:100C00009881214200B500211148026822F4704207
:100C10000260026842F4004202600E4A0123C2F8F8
:100C20009C3100F027FAC2F8983100F023FA07E06F
:100C3000491CC9B2FA2903D9FFF7C4FF012000BD3E
:100C4000D2F81C010028F3D1C2F8980100BD0000C1
:100C5000000C014000802142FEE7704770B50F2371
:100C6000C27801260178002A1ED0144A126802F4C4
:100C7000E062C2F5E062120AC2F10404D340457892
:100C8000A54082781A402A43120101F1E02181F83F
:100C90000024007800F01F018E404009800000F120
:100CA000E020C0F8006170BD01F01F0086404809D7
:100CB000800000F1E020C0F8806170BD0CED00E024
:100CC00070470000054A002903D0916901439161F2
:100CD00070479169814391617047000000100240A4
:100CE00010B5264A516801F00C01254B002927D088
:100CF000042927D0082927D00360516801F0F001AA
:100D00000909204B5C5C0168E1404160546804F4CF
:100D1000E064240A1C5D21FA04F48460546804F43D
:100D20006054E40A1B5DD940C160526802F440423D
:100D3000920B144B1B1F9A5CB1FBF2F1016110BDC9
:100D40000360DAE70360D8E7516801F47011536873
:100D500003F48033022404EB914133B153689B03C5
:100D600007D5094B59430160C7E7074B5943016059
:100D7000C3E7034B59430160BFE700000010024086
:100D800000127A003800002000093D00704700F092
:100D900001B800000CB500220192009227480168BA
:100DA00041F4803101604FF4A063016801F4003127
:100DB00000910199491C0191009911B90199994239
:100DC000F3D10168890302D50121009100E000926E
:100DD0000099012930D11A490A6842F010020A60CC
:100DE0000A6822F003020A600A6842F002020A60FE
:100DF0004168416041684160416841F480614160FF
:100E0000416821F47C114160416841F4E81141607E
:100E1000016841F08071016001688901FCD5416879
:100E200021F003014160416841F0020141604168E5
:100E3000C1F381010229FAD10CBD0000001002406B
:100E4000002002404FF0E021042804D0086920F07F
:100E5000040008617047086940F0040008617047A9
:100E60007047000010B50F48016841F001010160B2
:100E700041680D4A1140416001680C4A114001600F
:100E8000016821F480210160416821F4FE01416084
:100E90004FF41F018160FFF77AFF05494FF00060B2
:100EA000086010BD001002400000FFF8FFFFF6FED2
:100EB00008ED00E070B5164C40F22551204600F0D8
:100EC00039F800280ED0204600F0CEF8C1B2114A01
:100ED0001088030406D444044FF0000307D50A2900
:100EE00001D0138070BD40F40040108070BD0D290A
:100EF0000AD0094DC0F30D042955401C80B2108062
:100F0000C728F3D9138070BD40F48040108070BDB5
:100F1000003801402C00002068000020002904D087
:100F2000818941F4005181817047818921F4005108
:100F30008181704770B5002440F66A12C1F34213F4
:100F400001F01F05012606FA05F2012B0CD0022B39
:100F50000DD0838A1340090A8E40008830400BB1BF
:100F600000B10124204670BD83891340F3E7038A52
:100F70001340F0E710B540F66A13C1F3421301F0D5
:100F80001F040121A140012B07D0022B07D01430F0
:100F90003AB102680A43026010BD0C30F8E7103025
:100FA000F6E702688A43026010BD000030B585B0E4
:100FB00004460D46208A4CF6FF710840E98801433B
:100FC0002182A0894EF6F3110840A9882A8911438D
:100FD0006A8902431143A181A08A4FF6FF4108406C
:100FE000A9890143A1826846FFF77AFE1D48844221
:100FF00001D1039800E00298A189090408D500EB0B
:10100000C00101EB001029684900B0FBF1F007E0D6
:1010100000EBC00101EB001029688900B0FBF1F082
:101020006422B0FBF2F109010B096FF018056B4364
:1010300000EB8300A3891D044FF0320307D503EBB7
:10104000C000B0FBF2F000F00700084306E003EB3D
:101050000010B0FBF2F000F00F000843208105B053
:1010600030BD0000003801408088C0F308007047A0
:10107000FEE77047002000BF00BF00BF00BF00BFF9
:1010800000BF00BF00BF00BF00BF00BF00BF00BF68
:1010900000BF00BF00BF00BF00BF00BF00BF00BF58
:1010A00000BF00BF00BF00BF00BF00BF00BF00BF48
:1010B00000BF00BF00BF00BF00BF00BF00BF00BF38
:1010C00000BF00BF00BF00BF00BF00BF00BF00BF28
:1010D00000BF00BF00BF00BF00BF00BF00BF00BF18
:1010E00000BF00BF00BF00BF00BF00BF00BF00BF08
:1010F00000BF00BF401C0228BDD3704710B56FF081
:101100000400FFF79FFE094809490068B0FBF1F0B1
:101110000849C0B2087000EB4002C2EBC0104FF6A5
:10112000FF7202EAC000488010BD000010000020DD
:1011300000127A00280000200B49498848434FF0EC
:10114000E021486100238B61086940F001000861DB
:101150000869C20701D0C003FAD5086920F0010070
:1011600008618B61704700002800002004490A884C
:101170005206FCD5024AC1B2121D11807047000010
:101180000038014008B5FFF7B9FF4FF4612000F0C7
:1011900025F8FFF757FCFFF7CFF9084C4FF4FA7525
:1011A000FFF7B2F9E168009194E80E0004A0FFF7A0
:1011B00033F82846FFF7C0FFF2E7000000000020E8
:1011C0000D0A4348307E33282564202C20256420D6
:1011D0002C202564202C20256429000070B586B0C1
:1011E0000546012144F20400FFF76CFD4FF4007046
:1011F000ADF8140003248DF8164018218DF817104F
:101200001C4E05A93046FFF778FB3115ADF81410D8
:1012100004218DF8171005A93046FFF76EFB252035
:101220008DF800008DF801408DF8024001208DF806
:1012300003006846FFF712FD01950020ADF8080095
:10124000ADF80A00ADF80C00ADF810000C20ADF8B8
:101250000E00094C01A92046FFF7A8FE012240F22A
:1012600025512046FFF786FE01212046FFF756FE56
:1012700006B070BD00080140003801402DE9C041B2
:1012800030B4DFF8A0C23CEA111418BF3CEA1314D2
:1012900000F0EC8081EA03051CEA111444EAD574DD
:1012A00018BF1CEA131500F0C780A4EB05044FF02B
:1012B000004545EAC12145EAC32341EA505143EACA
:1012C000525304F17F74994204F500344FEAC02070
:1012D0004FEAC22208BF904200F09C804FEA13659B
:1012E0000FF24016765D4FEA134506FB05F7C7F18E
:1012F000807706FB07F74FEAD737A7FB03687642EC
:10130000C8F58038A7FB06CE38BFA8F1010807FB57
:1013100008E64FF0000EA6FB028CE6FB03CEDCF1E4
:10132000000CCEF1004E38BFAEF1010EA6FB0C58FA
:101330004FF000074FF00005E6FB0E87A1FB08C643
:10134000A0FB07CE16EB0E0645F10005E1FB076595
:1013500015F1E04E7EBFA4F580345FEA46066D418C
:1013600016F1800745F100054FEA17274FEA066698
:1013700047EA0567A6F1DE46B6F1805F4FEA15251C
:101380001FD9384624F0010C05EBC471BCF1FE6F87
:1013900001EB0C1102D8F0BCBDE8008124425CBF17
:1013A00001F5801E9EEAC47F02D4F0BCBDE8008136
:1013B000244238D4F0BCA1F1C041BDE8004100F0A6
:1013C00016B94FEAD22242EA43524FEAD323A7FB8F
:1013D00002864FEAD02040EA415007FB03661EEA2E
:1013E0000E0F4FEAD12105FB026658BFA6EB00564F
:1013F000B6EB00564FEA520E4EEAC37E18EB0E0EC5
:1014000056EB530EBDD518EB02085E417F1C55F11B
:101410000005B6E74FF480154FF000074FF00006C7
:101420004FF00008ADE7F0BC4FF0000001F1C04103
:1014300001F00041BDE8008111EA0C1F0CEA131510
:1014400000D00CE013EA0C1F00F025804FF00000E4
:10145000F0BC81EA030101F00041BDE80081F0BC6D
:10146000BDE8004181EA030100F0C1B8F0BCBDE86D
:10147000004170B500F06DF8097EFC3E00F007B841
:1014800081EA03014FF0000001F00041704781EA5A
:10149000030100F0ACB8F0BCBDE800414FF0000023
:1014A00021497047FFFDFBF9F7F5F4F2F0EEEDEBA3
:1014B000E9E8E6E4E3E1E0DEDDDBDAD8D7D5D4D352
:1014C000D1D0CFCDCCCBCAC8C7C6C5C4C2C1C0BF9E
:1014D000BEBDBCBBBAB9B8B7B6B5B4B3B2B1B0AFA4
:1014E000AEADACABAAA9A8A8A7A6A5A4A3A3A2A188
:1014F000A09F9F9E9D9C9C9B9A9999989797969543
:1015000095949393929191908F8F8E8E8D8C8C8BDE
:101510008B8A898988888787868585848483838266
:10152000828181800000FF070000F87FB0FA80F31D
:1015300010FA03F10AD0C3F11D0303F580634FEAEB
:1015400041504FEA035202EBD12170474FF00000A7
:1015500070470EF1020E2EF0030E5EF8046B364259
:1015600005D4012A43EB030515F5001F12D8012805
:1015700041EB010C1CF5001F0CD80ED14FEAD17CB9
:1015800015F5001F0CEB4C0C0CF1020C08BF4CEBDA
:10159000D37C04E04FF0080C01E04FEAD37C0CEB65
:1015A0004C0526FA05F606F00706B6F1040C06D23D
:1015B0000EEB860CBDE870404CF0010C6047DFE894
:1015C0000CF0090B02024FF000414FF00000A1F5B2
:1015D000002170BD19461046012851EB010418BFC7
:1015E000D4F5001484BF002001F0004170BD08084C
:1015F000A0F500114FEA3101704700001C160008E9
:1016000000000020480000006C010008641600087B
:101610004800002048070000880100080000000082
:1016200000000000000000000000000000A24A04CA
:101630000000000000000000010203040607080982
:10164000000000000000000000000000000000009A
:101650000204060800000000010203040102030462
:041660000607080968
:0400000508000131BD
:00000001FF
